{
  "contractName": "Market",
  "abi": [
    {
      "inputs": [],
      "stateMutability": "nonpayable",
      "type": "constructor"
    },
    {
      "anonymous": false,
      "inputs": [
        {
          "indexed": true,
          "internalType": "uint256",
          "name": "tokenId",
          "type": "uint256"
        },
        {
          "indexed": false,
          "internalType": "uint256",
          "name": "ask",
          "type": "uint256"
        }
      ],
      "name": "AskCreated",
      "type": "event"
    },
    {
      "anonymous": false,
      "inputs": [
        {
          "indexed": true,
          "internalType": "uint256",
          "name": "tokenId",
          "type": "uint256"
        },
        {
          "indexed": false,
          "internalType": "uint256",
          "name": "ask",
          "type": "uint256"
        }
      ],
      "name": "AskRemoved",
      "type": "event"
    },
    {
      "anonymous": false,
      "inputs": [
        {
          "indexed": true,
          "internalType": "uint256",
          "name": "tokenId",
          "type": "uint256"
        },
        {
          "components": [
            {
              "internalType": "uint256",
              "name": "amount",
              "type": "uint256"
            },
            {
              "internalType": "address",
              "name": "bidder",
              "type": "address"
            },
            {
              "internalType": "address",
              "name": "recipient",
              "type": "address"
            },
            {
              "components": [
                {
                  "internalType": "uint256",
                  "name": "value",
                  "type": "uint256"
                }
              ],
              "internalType": "struct Decimal.D256",
              "name": "sellOnShare",
              "type": "tuple"
            }
          ],
          "indexed": false,
          "internalType": "struct IMarket.Bid",
          "name": "bid",
          "type": "tuple"
        }
      ],
      "name": "BidCreated",
      "type": "event"
    },
    {
      "anonymous": false,
      "inputs": [
        {
          "indexed": true,
          "internalType": "uint256",
          "name": "tokenId",
          "type": "uint256"
        },
        {
          "components": [
            {
              "internalType": "uint256",
              "name": "amount",
              "type": "uint256"
            },
            {
              "internalType": "address",
              "name": "bidder",
              "type": "address"
            },
            {
              "internalType": "address",
              "name": "recipient",
              "type": "address"
            },
            {
              "components": [
                {
                  "internalType": "uint256",
                  "name": "value",
                  "type": "uint256"
                }
              ],
              "internalType": "struct Decimal.D256",
              "name": "sellOnShare",
              "type": "tuple"
            }
          ],
          "indexed": false,
          "internalType": "struct IMarket.Bid",
          "name": "bid",
          "type": "tuple"
        }
      ],
      "name": "BidFinalized",
      "type": "event"
    },
    {
      "anonymous": false,
      "inputs": [
        {
          "indexed": true,
          "internalType": "uint256",
          "name": "tokenId",
          "type": "uint256"
        },
        {
          "components": [
            {
              "internalType": "uint256",
              "name": "amount",
              "type": "uint256"
            },
            {
              "internalType": "address",
              "name": "bidder",
              "type": "address"
            },
            {
              "internalType": "address",
              "name": "recipient",
              "type": "address"
            },
            {
              "components": [
                {
                  "internalType": "uint256",
                  "name": "value",
                  "type": "uint256"
                }
              ],
              "internalType": "struct Decimal.D256",
              "name": "sellOnShare",
              "type": "tuple"
            }
          ],
          "indexed": false,
          "internalType": "struct IMarket.Bid",
          "name": "bid",
          "type": "tuple"
        }
      ],
      "name": "BidRemoved",
      "type": "event"
    },
    {
      "anonymous": false,
      "inputs": [
        {
          "indexed": true,
          "internalType": "uint256",
          "name": "tokenId",
          "type": "uint256"
        },
        {
          "components": [
            {
              "components": [
                {
                  "internalType": "uint256",
                  "name": "value",
                  "type": "uint256"
                }
              ],
              "internalType": "struct Decimal.D256",
              "name": "prevOwner",
              "type": "tuple"
            },
            {
              "components": [
                {
                  "internalType": "uint256",
                  "name": "value",
                  "type": "uint256"
                }
              ],
              "internalType": "struct Decimal.D256",
              "name": "creator",
              "type": "tuple"
            },
            {
              "components": [
                {
                  "internalType": "uint256",
                  "name": "value",
                  "type": "uint256"
                }
              ],
              "internalType": "struct Decimal.D256",
              "name": "owner",
              "type": "tuple"
            }
          ],
          "indexed": false,
          "internalType": "struct IMarket.BidShares",
          "name": "bidShares",
          "type": "tuple"
        }
      ],
      "name": "BidShareUpdated",
      "type": "event"
    },
    {
      "inputs": [],
      "name": "mediaContract",
      "outputs": [
        {
          "internalType": "address",
          "name": "",
          "type": "address"
        }
      ],
      "stateMutability": "view",
      "type": "function"
    },
    {
      "inputs": [
        {
          "internalType": "uint256",
          "name": "tokenId",
          "type": "uint256"
        },
        {
          "internalType": "address",
          "name": "bidder",
          "type": "address"
        }
      ],
      "name": "bidForTokenBidder",
      "outputs": [
        {
          "components": [
            {
              "internalType": "uint256",
              "name": "amount",
              "type": "uint256"
            },
            {
              "internalType": "address",
              "name": "bidder",
              "type": "address"
            },
            {
              "internalType": "address",
              "name": "recipient",
              "type": "address"
            },
            {
              "components": [
                {
                  "internalType": "uint256",
                  "name": "value",
                  "type": "uint256"
                }
              ],
              "internalType": "struct Decimal.D256",
              "name": "sellOnShare",
              "type": "tuple"
            }
          ],
          "internalType": "struct IMarket.Bid",
          "name": "",
          "type": "tuple"
        }
      ],
      "stateMutability": "view",
      "type": "function"
    },
    {
      "inputs": [
        {
          "internalType": "uint256",
          "name": "tokenId",
          "type": "uint256"
        }
      ],
      "name": "currentAskForToken",
      "outputs": [
        {
          "internalType": "uint256",
          "name": "",
          "type": "uint256"
        }
      ],
      "stateMutability": "view",
      "type": "function"
    },
    {
      "inputs": [
        {
          "internalType": "uint256",
          "name": "tokenId",
          "type": "uint256"
        }
      ],
      "name": "bidSharesForToken",
      "outputs": [
        {
          "components": [
            {
              "components": [
                {
                  "internalType": "uint256",
                  "name": "value",
                  "type": "uint256"
                }
              ],
              "internalType": "struct Decimal.D256",
              "name": "prevOwner",
              "type": "tuple"
            },
            {
              "components": [
                {
                  "internalType": "uint256",
                  "name": "value",
                  "type": "uint256"
                }
              ],
              "internalType": "struct Decimal.D256",
              "name": "creator",
              "type": "tuple"
            },
            {
              "components": [
                {
                  "internalType": "uint256",
                  "name": "value",
                  "type": "uint256"
                }
              ],
              "internalType": "struct Decimal.D256",
              "name": "owner",
              "type": "tuple"
            }
          ],
          "internalType": "struct IMarket.BidShares",
          "name": "",
          "type": "tuple"
        }
      ],
      "stateMutability": "view",
      "type": "function"
    },
    {
      "inputs": [
        {
          "internalType": "address",
          "name": "mediaContractAddress",
          "type": "address"
        }
      ],
      "name": "configure",
      "outputs": [],
      "stateMutability": "nonpayable",
      "type": "function"
    },
    {
      "inputs": [
        {
          "internalType": "uint256",
          "name": "tokenId",
          "type": "uint256"
        },
        {
          "internalType": "uint256",
          "name": "ask",
          "type": "uint256"
        }
      ],
      "name": "setAsk",
      "outputs": [],
      "stateMutability": "nonpayable",
      "type": "function"
    },
    {
      "inputs": [],
      "name": "getAllTokens",
      "outputs": [
        {
          "components": [
            {
              "internalType": "uint256",
              "name": "tokenId",
              "type": "uint256"
            },
            {
              "internalType": "uint256",
              "name": "askValue",
              "type": "uint256"
            },
            {
              "internalType": "address",
              "name": "tokenOwner",
              "type": "address"
            }
          ],
          "internalType": "struct Market.TokenAskInfo[]",
          "name": "",
          "type": "tuple[]"
        }
      ],
      "stateMutability": "view",
      "type": "function"
    },
    {
      "inputs": [
        {
          "internalType": "uint256",
          "name": "tokenId",
          "type": "uint256"
        }
      ],
      "name": "removeAsk",
      "outputs": [],
      "stateMutability": "nonpayable",
      "type": "function"
    },
    {
      "inputs": [
        {
          "internalType": "uint256",
          "name": "tokenId",
          "type": "uint256"
        },
        {
          "components": [
            {
              "internalType": "uint256",
              "name": "amount",
              "type": "uint256"
            },
            {
              "internalType": "address",
              "name": "bidder",
              "type": "address"
            },
            {
              "internalType": "address",
              "name": "recipient",
              "type": "address"
            },
            {
              "components": [
                {
                  "internalType": "uint256",
                  "name": "value",
                  "type": "uint256"
                }
              ],
              "internalType": "struct Decimal.D256",
              "name": "sellOnShare",
              "type": "tuple"
            }
          ],
          "internalType": "struct IMarket.Bid",
          "name": "bid",
          "type": "tuple"
        },
        {
          "internalType": "address",
          "name": "spender",
          "type": "address"
        }
      ],
      "name": "setBid",
      "outputs": [],
      "stateMutability": "payable",
      "type": "function"
    },
    {
      "inputs": [
        {
          "internalType": "uint256",
          "name": "tokenId",
          "type": "uint256"
        },
        {
          "internalType": "uint256",
          "name": "bidAmount",
          "type": "uint256"
        }
      ],
      "name": "isValidBid",
      "outputs": [
        {
          "internalType": "bool",
          "name": "",
          "type": "bool"
        }
      ],
      "stateMutability": "view",
      "type": "function"
    },
    {
      "inputs": [
        {
          "components": [
            {
              "components": [
                {
                  "internalType": "uint256",
                  "name": "value",
                  "type": "uint256"
                }
              ],
              "internalType": "struct Decimal.D256",
              "name": "prevOwner",
              "type": "tuple"
            },
            {
              "components": [
                {
                  "internalType": "uint256",
                  "name": "value",
                  "type": "uint256"
                }
              ],
              "internalType": "struct Decimal.D256",
              "name": "creator",
              "type": "tuple"
            },
            {
              "components": [
                {
                  "internalType": "uint256",
                  "name": "value",
                  "type": "uint256"
                }
              ],
              "internalType": "struct Decimal.D256",
              "name": "owner",
              "type": "tuple"
            }
          ],
          "internalType": "struct IMarket.BidShares",
          "name": "bidShares",
          "type": "tuple"
        }
      ],
      "name": "isValidBidShares",
      "outputs": [
        {
          "internalType": "bool",
          "name": "",
          "type": "bool"
        }
      ],
      "stateMutability": "pure",
      "type": "function"
    },
    {
      "inputs": [
        {
          "internalType": "uint256",
          "name": "tokenId",
          "type": "uint256"
        },
        {
          "internalType": "address",
          "name": "bidder",
          "type": "address"
        }
      ],
      "name": "removeBid",
      "outputs": [],
      "stateMutability": "nonpayable",
      "type": "function"
    },
    {
      "inputs": [
        {
          "internalType": "uint256",
          "name": "tokenId",
          "type": "uint256"
        },
        {
          "components": [
            {
              "internalType": "uint256",
              "name": "amount",
              "type": "uint256"
            },
            {
              "internalType": "address",
              "name": "bidder",
              "type": "address"
            },
            {
              "internalType": "address",
              "name": "recipient",
              "type": "address"
            },
            {
              "components": [
                {
                  "internalType": "uint256",
                  "name": "value",
                  "type": "uint256"
                }
              ],
              "internalType": "struct Decimal.D256",
              "name": "sellOnShare",
              "type": "tuple"
            }
          ],
          "internalType": "struct IMarket.Bid",
          "name": "expectedBid",
          "type": "tuple"
        }
      ],
      "name": "acceptBid",
      "outputs": [],
      "stateMutability": "nonpayable",
      "type": "function"
    },
    {
      "inputs": [
        {
          "components": [
            {
              "internalType": "uint256",
              "name": "value",
              "type": "uint256"
            }
          ],
          "internalType": "struct Decimal.D256",
          "name": "sharePercentage",
          "type": "tuple"
        },
        {
          "internalType": "uint256",
          "name": "amount",
          "type": "uint256"
        }
      ],
      "name": "splitShare",
      "outputs": [
        {
          "internalType": "uint256",
          "name": "",
          "type": "uint256"
        }
      ],
      "stateMutability": "pure",
      "type": "function"
    },
    {
      "inputs": [
        {
          "internalType": "uint256",
          "name": "tokenId",
          "type": "uint256"
        },
        {
          "components": [
            {
              "components": [
                {
                  "internalType": "uint256",
                  "name": "value",
                  "type": "uint256"
                }
              ],
              "internalType": "struct Decimal.D256",
              "name": "prevOwner",
              "type": "tuple"
            },
            {
              "components": [
                {
                  "internalType": "uint256",
                  "name": "value",
                  "type": "uint256"
                }
              ],
              "internalType": "struct Decimal.D256",
              "name": "creator",
              "type": "tuple"
            },
            {
              "components": [
                {
                  "internalType": "uint256",
                  "name": "value",
                  "type": "uint256"
                }
              ],
              "internalType": "struct Decimal.D256",
              "name": "owner",
              "type": "tuple"
            }
          ],
          "internalType": "struct IMarket.BidShares",
          "name": "bidShares",
          "type": "tuple"
        }
      ],
      "name": "setBidShares",
      "outputs": [],
      "stateMutability": "nonpayable",
      "type": "function"
    }
  ],
  "bytecode": "0x608060405234801561001057600080fd5b5033600160006101000a81548173ffffffffffffffffffffffffffffffffffffffff021916908373ffffffffffffffffffffffffffffffffffffffff16021790555061337e806100616000396000f3fe6080604052600436106100e85760003560e01c8063776a08351161008a578063b920c12311610059578063b920c123146102f7578063e49f876814610334578063eb55683a1461035d578063f9ce058214610386576100e8565b8063776a08351461024c5780637ccb5f6f14610275578063ad827dc414610291578063b501806e146102ce576100e8565b8063360636eb116100c6578063360636eb1461017e5780634e21f9c0146101bb578063578064f6146101e657806375cb267214610223576100e8565b806302e8fe13146100ed57806328220f351461012a5780632a5c792a14610153575b600080fd5b3480156100f957600080fd5b50610114600480360381019061010f919061258f565b6103c3565b6040516101219190612e94565b60405180910390f35b34801561013657600080fd5b50610151600480360381019061014c919061243a565b61042e565b005b34801561015f57600080fd5b50610168610522565b6040516101759190612e72565b60405180910390f35b34801561018a57600080fd5b506101a560048036038101906101a091906123d5565b610745565b6040516101b29190612e94565b60405180910390f35b3480156101c757600080fd5b506101d06107a4565b6040516101dd9190612e57565b60405180910390f35b3480156101f257600080fd5b5061020d6004803603810190610208919061243a565b6107c9565b60405161021a919061315d565b60405180910390f35b34801561022f57600080fd5b5061024a60048036038101906102459190612383565b6107e6565b005b34801561025857600080fd5b50610273600480360381019061026e919061248c565b6109b9565b005b61028f600480360381019061028a9190612540565b610c29565b005b34801561029d57600080fd5b506102b860048036038101906102b3919061248c565b611144565b6040516102c59190613127565b60405180910390f35b3480156102da57600080fd5b506102f560048036038101906102f09190612504565b611283565b005b34801561030357600080fd5b5061031e600480360381019061031991906123fe565b6115b5565b60405161032b919061315d565b60405180910390f35b34801561034057600080fd5b5061035b6004803603810190610356919061258f565b6115dc565b005b34801561036957600080fd5b50610384600480360381019061037f91906124c8565b611708565b005b34801561039257600080fd5b506103ad60048036038101906103a8919061243a565b611871565b6040516103ba91906130f1565b60405180910390f35b60006103cd612131565b6103d684611871565b90506103e181610745565b610420576040517f08c379a000000000000000000000000000000000000000000000000000000000815260040161041790613071565b60405180910390fd5b600083141591505092915050565b3373ffffffffffffffffffffffffffffffffffffffff166000809054906101000a900473ffffffffffffffffffffffffffffffffffffffff1673ffffffffffffffffffffffffffffffffffffffff16146104bd576040517f08c379a00000000000000000000000000000000000000000000000000000000081526004016104b490613031565b60405180910390fd5b807f67d7e6bc137ac7c2fa6d77b41f9d035b3bd9ca464d1242d1ba9d42e135faf8526004600084815260200190815260200160002054604051610500919061315d565b60405180910390a2600460008281526020019081526020016000206000905550565b606060008060009054906101000a900473ffffffffffffffffffffffffffffffffffffffff1673ffffffffffffffffffffffffffffffffffffffff166378a895676040518163ffffffff1660e01b815260040160206040518083038186803b15801561058d57600080fd5b505afa1580156105a1573d6000803e3d6000fd5b505050506040513d601f19601f820116820180604052508101906105c59190612463565b905060608167ffffffffffffffff811180156105e057600080fd5b5060405190808252806020026020018201604052801561061a57816020015b610607612164565b8152602001906001900390816105ff5790505b50905060008090505b8281101561073c576040518060600160405280828152602001600460008481526020019081526020016000205481526020016000809054906101000a900473ffffffffffffffffffffffffffffffffffffffff1673ffffffffffffffffffffffffffffffffffffffff16636352211e846040518263ffffffff1660e01b81526004016106af919061315d565b60206040518083038186803b1580156106c757600080fd5b505afa1580156106db573d6000803e3d6000fd5b505050506040513d601f19601f820116820180604052508101906106ff91906123ac565b73ffffffffffffffffffffffffffffffffffffffff1681525082828151811061072457fe5b60200260200101819052508080600101915050610623565b50809250505090565b600061075f6012600a0a60646118f890919063ffffffff16565b61079c83600001516000015161078e85604001516000015186602001516000015161196890919063ffffffff16565b61196890919063ffffffff16565b149050919050565b6000809054906101000a900473ffffffffffffffffffffffffffffffffffffffff1681565b600060046000838152602001908152602001600020549050919050565b600160009054906101000a900473ffffffffffffffffffffffffffffffffffffffff1673ffffffffffffffffffffffffffffffffffffffff163373ffffffffffffffffffffffffffffffffffffffff1614610876576040517f08c379a000000000000000000000000000000000000000000000000000000000815260040161086d90612fd1565b60405180910390fd5b600073ffffffffffffffffffffffffffffffffffffffff166000809054906101000a900473ffffffffffffffffffffffffffffffffffffffff1673ffffffffffffffffffffffffffffffffffffffff1614610906576040517f08c379a00000000000000000000000000000000000000000000000000000000081526004016108fd90613091565b60405180910390fd5b600073ffffffffffffffffffffffffffffffffffffffff168173ffffffffffffffffffffffffffffffffffffffff161415610976576040517f08c379a000000000000000000000000000000000000000000000000000000000815260040161096d906130d1565b60405180910390fd5b806000806101000a81548173ffffffffffffffffffffffffffffffffffffffff021916908373ffffffffffffffffffffffffffffffffffffffff16021790555050565b3373ffffffffffffffffffffffffffffffffffffffff166000809054906101000a900473ffffffffffffffffffffffffffffffffffffffff1673ffffffffffffffffffffffffffffffffffffffff1614610a48576040517f08c379a0000000000000000000000000000000000000000000000000000000008152600401610a3f90613031565b60405180910390fd5b60006002600084815260200190815260200160002060008373ffffffffffffffffffffffffffffffffffffffff1673ffffffffffffffffffffffffffffffffffffffff16815260200190815260200160002090506000816000015490506000826000015411610aec576040517f08c379a0000000000000000000000000000000000000000000000000000000008152600401610ae390612f71565b60405180910390fd5b837f6f6ddb3529e63bcdd75528f1ce8f9ed267cc8d1e04e7cacf5ca2e370e4b6ae8483604051610b1c9190613142565b60405180910390a26002600085815260200190815260200160002060008473ffffffffffffffffffffffffffffffffffffffff1673ffffffffffffffffffffffffffffffffffffffff1681526020019081526020016000206000808201600090556001820160006101000a81549073ffffffffffffffffffffffffffffffffffffffff02191690556002820160006101000a81549073ffffffffffffffffffffffffffffffffffffffff021916905560038201600080820160009055505050508273ffffffffffffffffffffffffffffffffffffffff166108fc829081150290604051600060405180830381858888f19350505050158015610c22573d6000803e3d6000fd5b5050505050565b3373ffffffffffffffffffffffffffffffffffffffff166000809054906101000a900473ffffffffffffffffffffffffffffffffffffffff1673ffffffffffffffffffffffffffffffffffffffff1614610cb8576040517f08c379a0000000000000000000000000000000000000000000000000000000008152600401610caf90613031565b60405180910390fd5b610cc0612131565b6003600085815260200190815260200160002060405180606001604052908160008201604051806020016040529081600082015481525050815260200160018201604051806020016040529081600082015481525050815260200160028201604051806020016040529081600082015481525050815250509050610d526012600a0a60646118f890919063ffffffff16565b610d7584606001516000015183602001516000015161196890919063ffffffff16565b1115610db6576040517f08c379a0000000000000000000000000000000000000000000000000000000008152600401610dad90613051565b60405180910390fd5b600073ffffffffffffffffffffffffffffffffffffffff16836020015173ffffffffffffffffffffffffffffffffffffffff161415610e2a576040517f08c379a0000000000000000000000000000000000000000000000000000000008152600401610e2190612f11565b60405180910390fd5b600083600001511415610e72576040517f08c379a0000000000000000000000000000000000000000000000000000000008152600401610e6990612f91565b60405180910390fd5b600073ffffffffffffffffffffffffffffffffffffffff16836040015173ffffffffffffffffffffffffffffffffffffffff161415610ee6576040517f08c379a0000000000000000000000000000000000000000000000000000000008152600401610edd906130b1565b60405180910390fd5b6000600260008681526020019081526020016000206000856020015173ffffffffffffffffffffffffffffffffffffffff1673ffffffffffffffffffffffffffffffffffffffff1681526020019081526020016000209050600081600001541115610f5a57610f598585602001516109b9565b5b6040518060800160405280348152602001856020015173ffffffffffffffffffffffffffffffffffffffff168152602001856040015173ffffffffffffffffffffffffffffffffffffffff1681526020018560600151815250600260008781526020019081526020016000206000866020015173ffffffffffffffffffffffffffffffffffffffff1673ffffffffffffffffffffffffffffffffffffffff1681526020019081526020016000206000820151816000015560208201518160010160006101000a81548173ffffffffffffffffffffffffffffffffffffffff021916908373ffffffffffffffffffffffffffffffffffffffff16021790555060408201518160020160006101000a81548173ffffffffffffffffffffffffffffffffffffffff021916908373ffffffffffffffffffffffffffffffffffffffff160217905550606082015181600301600082015181600001555050905050847f0dbda09423f0a7e29bacd13d4b48bba69d3ee8ce6abf7175228cef0236e2d756856040516110e79190613127565b60405180910390a26000600460008781526020019081526020016000205411801561112957506004600086815260200190815260200160002054846000015110155b1561113d5761113c8585602001516119bd565b5b5050505050565b61114c61219b565b6002600084815260200190815260200160002060008373ffffffffffffffffffffffffffffffffffffffff1673ffffffffffffffffffffffffffffffffffffffff168152602001908152602001600020604051806080016040529081600082015481526020016001820160009054906101000a900473ffffffffffffffffffffffffffffffffffffffff1673ffffffffffffffffffffffffffffffffffffffff1673ffffffffffffffffffffffffffffffffffffffff1681526020016002820160009054906101000a900473ffffffffffffffffffffffffffffffffffffffff1673ffffffffffffffffffffffffffffffffffffffff1673ffffffffffffffffffffffffffffffffffffffff1681526020016003820160405180602001604052908160008201548152505081525050905092915050565b3373ffffffffffffffffffffffffffffffffffffffff166000809054906101000a900473ffffffffffffffffffffffffffffffffffffffff1673ffffffffffffffffffffffffffffffffffffffff1614611312576040517f08c379a000000000000000000000000000000000000000000000000000000000815260040161130990613031565b60405180910390fd5b61131a61219b565b6002600084815260200190815260200160002060008360200160208101906113429190612383565b73ffffffffffffffffffffffffffffffffffffffff1673ffffffffffffffffffffffffffffffffffffffff168152602001908152602001600020604051806080016040529081600082015481526020016001820160009054906101000a900473ffffffffffffffffffffffffffffffffffffffff1673ffffffffffffffffffffffffffffffffffffffff1673ffffffffffffffffffffffffffffffffffffffff1681526020016002820160009054906101000a900473ffffffffffffffffffffffffffffffffffffffff1673ffffffffffffffffffffffffffffffffffffffff1673ffffffffffffffffffffffffffffffffffffffff1681526020016003820160405180602001604052908160008201548152505081525050905060008160000151116114a4576040517f08c379a000000000000000000000000000000000000000000000000000000000815260040161149b90612fb1565b60405180910390fd5b816000013581600001511480156114c957508160600160000135816060015160000151145b801561151657508160400160208101906114e39190612383565b73ffffffffffffffffffffffffffffffffffffffff16816040015173ffffffffffffffffffffffffffffffffffffffff16145b611555576040517f08c379a000000000000000000000000000000000000000000000000000000000815260040161154c90613011565b60405180910390fd5b6115638382600001516103c3565b6115a2576040517f08c379a000000000000000000000000000000000000000000000000000000000815260040161159990612ef1565b60405180910390fd5b6115b08382602001516119bd565b505050565b60006115d460646115c68486611f94565b611fb190919063ffffffff16565b905092915050565b3373ffffffffffffffffffffffffffffffffffffffff166000809054906101000a900473ffffffffffffffffffffffffffffffffffffffff1673ffffffffffffffffffffffffffffffffffffffff161461166b576040517f08c379a000000000000000000000000000000000000000000000000000000000815260040161166290613031565b60405180910390fd5b61167582826103c3565b6116b4576040517f08c379a00000000000000000000000000000000000000000000000000000000081526004016116ab90612f31565b60405180910390fd5b806004600084815260200190815260200160002081905550817f4d397010bbba1f444a077081db78e9c11ae561829248decd3e2f052dba8bdccb826040516116fc919061315d565b60405180910390a25050565b3373ffffffffffffffffffffffffffffffffffffffff166000809054906101000a900473ffffffffffffffffffffffffffffffffffffffff1673ffffffffffffffffffffffffffffffffffffffff1614611797576040517f08c379a000000000000000000000000000000000000000000000000000000000815260040161178e90613031565b60405180910390fd5b6117a081610745565b6117df576040517f08c379a00000000000000000000000000000000000000000000000000000000081526004016117d690612ed1565b60405180910390fd5b8060036000848152602001908152602001600020600082015181600001600082015181600001555050602082015181600101600082015181600001555050604082015181600201600082015181600001555050905050817fdb88d4e96cb8697aaee5e575ee5f460817709a1dfcfbf7ba15192e90b5c86f9f8260405161186591906130f1565b60405180910390a25050565b611879612131565b6003600083815260200190815260200160002060405180606001604052908160008201604051806020016040529081600082015481525050815260200160018201604051806020016040529081600082015481525050815260200160028201604051806020016040529081600082015481525050815250509050919050565b60008083141561190b5760009050611962565b600082840290508284828161191c57fe5b041461195d576040517f08c379a000000000000000000000000000000000000000000000000000000000815260040161195490612ff1565b60405180910390fd5b809150505b92915050565b6000808284019050838110156119b3576040517f08c379a00000000000000000000000000000000000000000000000000000000081526004016119aa90612f51565b60405180910390fd5b8091505092915050565b6119c561219b565b6002600084815260200190815260200160002060008373ffffffffffffffffffffffffffffffffffffffff1673ffffffffffffffffffffffffffffffffffffffff168152602001908152602001600020604051806080016040529081600082015481526020016001820160009054906101000a900473ffffffffffffffffffffffffffffffffffffffff1673ffffffffffffffffffffffffffffffffffffffff1673ffffffffffffffffffffffffffffffffffffffff1681526020016002820160009054906101000a900473ffffffffffffffffffffffffffffffffffffffff1673ffffffffffffffffffffffffffffffffffffffff1673ffffffffffffffffffffffffffffffffffffffff168152602001600382016040518060200160405290816000820154815250508152505090506000600360008581526020019081526020016000209050600080611b368360020160405180602001604052908160008201548152505085600001516115b5565b9150611b5e8360010160405180602001604052908160008201548152505085600001516115b5565b90506000809054906101000a900473ffffffffffffffffffffffffffffffffffffffff1673ffffffffffffffffffffffffffffffffffffffff16636352211e876040518263ffffffff1660e01b8152600401611bba919061315d565b60206040518083038186803b158015611bd257600080fd5b505afa158015611be6573d6000803e3d6000fd5b505050506040513d601f19601f82011682018060405250810190611c0a91906123ac565b73ffffffffffffffffffffffffffffffffffffffff166108fc839081150290604051600060405180830381858888f19350505050158015611c4f573d6000803e3d6000fd5b506000809054906101000a900473ffffffffffffffffffffffffffffffffffffffff1673ffffffffffffffffffffffffffffffffffffffff1663e0fd045f876040518263ffffffff1660e01b8152600401611caa919061315d565b60206040518083038186803b158015611cc257600080fd5b505afa158015611cd6573d6000803e3d6000fd5b505050506040513d601f19601f82011682018060405250810190611cfa91906123ac565b73ffffffffffffffffffffffffffffffffffffffff166108fc829081150290604051600060405180830381858888f19350505050158015611d3f573d6000803e3d6000fd5b506000809054906101000a900473ffffffffffffffffffffffffffffffffffffffff1673ffffffffffffffffffffffffffffffffffffffff1663f6b630f08786604001516040518363ffffffff1660e01b8152600401611da0929190613178565b600060405180830381600087803b158015611dba57600080fd5b505af1158015611dce573d6000803e3d6000fd5b505050506040518060200160405280611e3a866060015160000151611e2c600360008c815260200190815260200160002060010160000154611e1e6012600a0a60646118f890919063ffffffff16565b611ffb90919063ffffffff16565b611ffb90919063ffffffff16565b8152508360020160008201518160000155905050836060015183600001600082015181600001559050506002600087815260200190815260200160002060008673ffffffffffffffffffffffffffffffffffffffff1673ffffffffffffffffffffffffffffffffffffffff1681526020019081526020016000206000808201600090556001820160006101000a81549073ffffffffffffffffffffffffffffffffffffffff02191690556002820160006101000a81549073ffffffffffffffffffffffffffffffffffffffff02191690556003820160008082016000905550505050857fdb88d4e96cb8697aaee5e575ee5f460817709a1dfcfbf7ba15192e90b5c86f9f84604051611f4c919061310c565b60405180910390a2857f17aa9dd90addabc618f2752c7febbe3933832ea28157be152a4cbf5f9f8fba0785604051611f849190613127565b60405180910390a2505050505050565b6000611fa98383600001516012600a0a612045565b905092915050565b6000611ff383836040518060400160405280601a81526020017f536166654d6174683a206469766973696f6e206279207a65726f000000000000815250612075565b905092915050565b600061203d83836040518060400160405280601e81526020017f536166654d6174683a207375627472616374696f6e206f766572666c6f7700008152506120d6565b905092915050565b600061206c8261205e85876118f890919063ffffffff16565b611fb190919063ffffffff16565b90509392505050565b600080831182906120bc576040517f08c379a00000000000000000000000000000000000000000000000000000000081526004016120b39190612eaf565b60405180910390fd5b5060008385816120c857fe5b049050809150509392505050565b600083831115829061211e576040517f08c379a00000000000000000000000000000000000000000000000000000000081526004016121159190612eaf565b60405180910390fd5b5060008385039050809150509392505050565b60405180606001604052806121446121f5565b81526020016121516121f5565b815260200161215e6121f5565b81525090565b60405180606001604052806000815260200160008152602001600073ffffffffffffffffffffffffffffffffffffffff1681525090565b604051806080016040528060008152602001600073ffffffffffffffffffffffffffffffffffffffff168152602001600073ffffffffffffffffffffffffffffffffffffffff1681526020016121ef6121f5565b81525090565b6040518060200160405280600081525090565b6000813590506122178161331a565b92915050565b60008151905061222c8161331a565b92915050565b60006060828403121561224457600080fd5b61224e60606131a1565b9050600061225e84828501612321565b600083015250602061227284828501612321565b602083015250604061228684828501612321565b60408301525092915050565b6000608082840312156122a457600080fd5b81905092915050565b6000608082840312156122bf57600080fd5b6122c960806131a1565b905060006122d984828501612359565b60008301525060206122ed84828501612208565b602083015250604061230184828501612208565b604083015250606061231584828501612321565b60608301525092915050565b60006020828403121561233357600080fd5b61233d60206131a1565b9050600061234d84828501612359565b60008301525092915050565b60008135905061236881613331565b92915050565b60008151905061237d81613331565b92915050565b60006020828403121561239557600080fd5b60006123a384828501612208565b91505092915050565b6000602082840312156123be57600080fd5b60006123cc8482850161221d565b91505092915050565b6000606082840312156123e757600080fd5b60006123f584828501612232565b91505092915050565b6000806040838503121561241157600080fd5b600061241f85828601612321565b925050602061243085828601612359565b9150509250929050565b60006020828403121561244c57600080fd5b600061245a84828501612359565b91505092915050565b60006020828403121561247557600080fd5b60006124838482850161236e565b91505092915050565b6000806040838503121561249f57600080fd5b60006124ad85828601612359565b92505060206124be85828601612208565b9150509250929050565b600080608083850312156124db57600080fd5b60006124e985828601612359565b92505060206124fa85828601612232565b9150509250929050565b60008060a0838503121561251757600080fd5b600061252585828601612359565b925050602061253685828601612292565b9150509250929050565b600080600060c0848603121561255557600080fd5b600061256386828701612359565b9350506020612574868287016122ad565b92505060a061258586828701612208565b9150509250925092565b600080604083850312156125a257600080fd5b60006125b085828601612359565b92505060206125c185828601612359565b9150509250929050565b60006125d78383612df7565b60608301905092915050565b6125ec8161324d565b82525050565b6125fb8161324d565b82525050565b600061260c826131de565b6126168185613201565b9350612621836131ce565b8060005b8381101561265257815161263988826125cb565b9750612644836131f4565b925050600181019050612625565b5085935050505092915050565b6126688161325f565b82525050565b6000612679826131e9565b6126838185613212565b9350612693818560208601613295565b61269c816132fc565b840191505092915050565b60006126b4602b83613212565b91507f4d61726b65743a20496e76616c696420626964207368617265732c206d75737460008301527f2073756d20746f203130300000000000000000000000000000000000000000006020830152604082019050919050565b600061271a602783613212565b91507f4d61726b65743a2042696420696e76616c696420666f7220736861726520737060008301527f6c697474696e67000000000000000000000000000000000000000000000000006020830152604082019050919050565b6000612780602283613212565b91507f4d61726b65743a206269646465722063616e6e6f74206265203020616464726560008301527f73730000000000000000000000000000000000000000000000000000000000006020830152604082019050919050565b60006127e6602783613212565b91507f4d61726b65743a2041736b20696e76616c696420666f7220736861726520737060008301527f6c697474696e67000000000000000000000000000000000000000000000000006020830152604082019050919050565b600061284c601b83613212565b91507f536166654d6174683a206164646974696f6e206f766572666c6f7700000000006000830152602082019050919050565b600061288c602583613212565b91507f4d61726b65743a2063616e6e6f742072656d6f76652062696420616d6f756e7460008301527f206f6620300000000000000000000000000000000000000000000000000000006020830152604082019050919050565b60006128f2601e83613212565b91507f4d61726b65743a2063616e6e6f742062696420616d6f756e74206f66203000006000830152602082019050919050565b6000612932601e83613212565b91507f4d61726b65743a2063616e6e6f742061636365707420626964206f66203000006000830152602082019050919050565b6000612972601283613212565b91507f4d61726b65743a204f6e6c79206f776e657200000000000000000000000000006000830152602082019050919050565b60006129b2602183613212565b91507f536166654d6174683a206d756c7469706c69636174696f6e206f766572666c6f60008301527f77000000000000000000000000000000000000000000000000000000000000006020830152604082019050919050565b6000612a18601d83613212565b91507f4d61726b65743a20556e65787065637465642062696420666f756e642e0000006000830152602082019050919050565b6000612a58601b83613212565b91507f4d61726b65743a204f6e6c79206d6564696120636f6e747261637400000000006000830152602082019050919050565b6000612a98602f83613212565b91507f4d61726b65743a2053656c6c206f6e2066656520696e76616c696420666f722060008301527f73686172652073706c697474696e6700000000000000000000000000000000006020830152604082019050919050565b6000612afe602483613212565b91507f4d61726b65743a20496e76616c6964206269642073686172657320666f72207460008301527f6f6b656e000000000000000000000000000000000000000000000000000000006020830152604082019050919050565b6000612b64601a83613212565b91507f4d61726b65743a20416c726561647920636f6e666967757265640000000000006000830152602082019050919050565b6000612ba4602983613212565b91507f4d61726b65743a2062696420726563697069656e742063616e6e6f742062652060008301527f30206164647265737300000000000000000000000000000000000000000000006020830152604082019050919050565b6000612c0a603183613212565b91507f4d61726b65743a2063616e6e6f7420736574206d6564696120636f6e7472616360008301527f74206173207a65726f20616464726573730000000000000000000000000000006020830152604082019050919050565b606082016000820151612c796000850182612db2565b506020820151612c8c6020850182612db2565b506040820151612c9f6040850182612db2565b50505050565b606082016000808301612cbb6000860182612dce565b5060018301612ccd6020860182612dce565b5060028301612cdf6040860182612dce565b5050505050565b608082016000820151612cfc6000850182612e39565b506020820151612d0f60208501826125e3565b506040820151612d2260408501826125e3565b506060820151612d356060850182612db2565b50505050565b608082016000808301549050612d50816132e2565b612d5d6000860182612e39565b5060018301549050612d6e816132c8565b612d7b60208601826125e3565b5060028301549050612d8c816132c8565b612d9960408601826125e3565b5060038301612dab6060860182612dce565b5050505050565b602082016000820151612dc86000850182612e39565b50505050565b602082016000808301549050612de3816132e2565b612df06000860182612e39565b5050505050565b606082016000820151612e0d6000850182612e39565b506020820151612e206020850182612e39565b506040820151612e3360408501826125e3565b50505050565b612e428161328b565b82525050565b612e518161328b565b82525050565b6000602082019050612e6c60008301846125f2565b92915050565b60006020820190508181036000830152612e8c8184612601565b905092915050565b6000602082019050612ea9600083018461265f565b92915050565b60006020820190508181036000830152612ec9818461266e565b905092915050565b60006020820190508181036000830152612eea816126a7565b9050919050565b60006020820190508181036000830152612f0a8161270d565b9050919050565b60006020820190508181036000830152612f2a81612773565b9050919050565b60006020820190508181036000830152612f4a816127d9565b9050919050565b60006020820190508181036000830152612f6a8161283f565b9050919050565b60006020820190508181036000830152612f8a8161287f565b9050919050565b60006020820190508181036000830152612faa816128e5565b9050919050565b60006020820190508181036000830152612fca81612925565b9050919050565b60006020820190508181036000830152612fea81612965565b9050919050565b6000602082019050818103600083015261300a816129a5565b9050919050565b6000602082019050818103600083015261302a81612a0b565b9050919050565b6000602082019050818103600083015261304a81612a4b565b9050919050565b6000602082019050818103600083015261306a81612a8b565b9050919050565b6000602082019050818103600083015261308a81612af1565b9050919050565b600060208201905081810360008301526130aa81612b57565b9050919050565b600060208201905081810360008301526130ca81612b97565b9050919050565b600060208201905081810360008301526130ea81612bfd565b9050919050565b60006060820190506131066000830184612c63565b92915050565b60006060820190506131216000830184612ca5565b92915050565b600060808201905061313c6000830184612ce6565b92915050565b60006080820190506131576000830184612d3b565b92915050565b60006020820190506131726000830184612e48565b92915050565b600060408201905061318d6000830185612e48565b61319a60208301846125f2565b9392505050565b6000604051905081810181811067ffffffffffffffff821117156131c457600080fd5b8060405250919050565b6000819050602082019050919050565b600081519050919050565b600081519050919050565b6000602082019050919050565b600082825260208201905092915050565b600082825260208201905092915050565b600073ffffffffffffffffffffffffffffffffffffffff82169050919050565b6000819050919050565b60006132588261326b565b9050919050565b60008115159050919050565b600073ffffffffffffffffffffffffffffffffffffffff82169050919050565b6000819050919050565b60005b838110156132b3578082015181840152602081019050613298565b838111156132c2576000848401525b50505050565b60006132db6132d68361330d565b613223565b9050919050565b60006132f56132f08361330d565b613243565b9050919050565b6000601f19601f8301169050919050565b60008160001c9050919050565b6133238161324d565b811461332e57600080fd5b50565b61333a8161328b565b811461334557600080fd5b5056fea2646970667358221220f3d7728e43876ad66a71ae4842268e45339e6340f9f1c1608faf03d505ea9cab64736f6c63430006080033",
  "immutableReferences": {},
  "source": "// SPDX-License-Identifier: GPL-3.0\r\n\r\npragma solidity 0.6.8;\r\npragma experimental ABIEncoderV2;\r\n\r\nimport \"@openzeppelin/contracts/introspection/IERC165.sol\";\r\nimport \"@openzeppelin/contracts/utils/Address.sol\";\r\nimport {SafeMath} from \"@openzeppelin/contracts/math/SafeMath.sol\";\r\nimport {IERC721} from \"@openzeppelin/contracts/token/ERC721/IERC721.sol\";\r\nimport {IERC20} from \"@openzeppelin/contracts/token/ERC20/IERC20.sol\";\r\nimport {SafeERC20} from \"@openzeppelin/contracts/token/ERC20/SafeERC20.sol\";\r\nimport {Decimal} from \"./Decimal.sol\";\r\nimport {Media} from \"./Media.sol\";\r\nimport {IMarket} from \"./IMarket.sol\";\r\n\r\n/**\r\n * @title A Market for pieces of media\r\n * @notice This contract contains all of the market logic for Media\r\n */\r\ncontract Market is IMarket {\r\n    using SafeMath for uint256;\r\n    using SafeERC20 for IERC20;\r\n\r\n    /* *******\r\n     * Globals\r\n     * *******\r\n     */\r\n    // Address of the media contract that can call this market\r\n    address public mediaContract;\r\n\r\n    // Deployment Address\r\n    address private _owner;\r\n\r\n    // Mapping from token to mapping from bidder to bid\r\n    mapping(uint256 => mapping(address => Bid)) private _tokenBidders;\r\n\r\n    // // Mapping from token to the bid shares for the token\r\n    mapping(uint256 => BidShares) private _bidShares;\r\n\r\n    // Mapping from token to the current ask for the token\r\n    mapping(uint256 => uint256) private _tokenAsks;\r\n\r\n    struct TokenAskInfo {\r\n        uint256 tokenId;\r\n        uint256 askValue; \r\n        address tokenOwner;\r\n    }\r\n\r\n    /* *********\r\n     * Modifiers\r\n     * *********\r\n     */\r\n\r\n    /**\r\n     * @notice require that the msg.sender is the configured media contract\r\n     */\r\n    modifier onlyMediaCaller() {\r\n        require(mediaContract == msg.sender, \"Market: Only media contract\");\r\n        _;\r\n    }\r\n\r\n    /* ****************\r\n     * View Functions\r\n     * ****************\r\n     */\r\n    function bidForTokenBidder(uint256 tokenId, address bidder)\r\n        external\r\n        view\r\n        override\r\n        returns (Bid memory)\r\n    {\r\n        return _tokenBidders[tokenId][bidder];\r\n    }\r\n\r\n    function currentAskForToken(uint256 tokenId)\r\n        external\r\n        view\r\n        override\r\n        returns (uint256 )\r\n    {\r\n        return _tokenAsks[tokenId];\r\n    }\r\n\r\n    function bidSharesForToken(uint256 tokenId)\r\n        public\r\n        view\r\n        override\r\n        returns (BidShares memory)\r\n    {\r\n        return _bidShares[tokenId];\r\n    }\r\n\r\n    \r\n\r\n    constructor() public {\r\n        _owner = msg.sender;\r\n    }\r\n\r\n    /**\r\n     * @notice Sets the media contract address. This address is the only permitted address that\r\n     * can call the mutable functions. This method can only be called once.\r\n     */\r\n    function configure(address mediaContractAddress) external override {\r\n        require(msg.sender == _owner, \"Market: Only owner\");\r\n        require(mediaContract == address(0), \"Market: Already configured\");\r\n        require(\r\n            mediaContractAddress != address(0),\r\n            \"Market: cannot set media contract as zero address\"\r\n        );\r\n\r\n        mediaContract = mediaContractAddress;\r\n    }\r\n\r\n    \r\n\r\n    /**\r\n     * @notice Sets the ask on a particular media. If the ask cannot be evenly split into the media's\r\n     * bid shares, this reverts.\r\n     */\r\n    function setAsk(uint256 tokenId, uint256  ask)\r\n        public\r\n        override\r\n        onlyMediaCaller\r\n    {\r\n        require(\r\n            isValidBid(tokenId, ask),\r\n            \"Market: Ask invalid for share splitting\"\r\n        );\r\n\r\n        _tokenAsks[tokenId] = ask;\r\n        emit AskCreated(tokenId, ask);\r\n    }\r\n\r\n    // get All token information\r\n\r\n    function getAllTokens() public view returns(TokenAskInfo[] memory) \r\n    {\r\n        uint256 tokenCount = Media(mediaContract).getTokenCount();\r\n        TokenAskInfo[] memory result = new TokenAskInfo[](tokenCount);        \r\n        for (uint i = 0; i < tokenCount; i++) {\r\n            result[i] = TokenAskInfo ({\r\n                tokenId : i, \r\n                askValue : _tokenAsks[i], \r\n                tokenOwner : IERC721(mediaContract).ownerOf(i)\r\n            });\r\n        }\r\n        return result;\r\n    }\r\n\r\n\r\n    /**\r\n     * @notice removes an ask for a token and emits an AskRemoved event\r\n     */\r\n    function removeAsk(uint256 tokenId) external override onlyMediaCaller {\r\n        emit AskRemoved(tokenId, _tokenAsks[tokenId]);\r\n        delete _tokenAsks[tokenId];\r\n    }\r\n\r\n    /**\r\n     * @notice Sets the bid on a particular media for a bidder. The token being used to bid\r\n     * is transferred from the spender to this contract to be held until removed or accepted.\r\n     * If another bid already exists for the bidder, it is refunded.\r\n     */\r\n    function setBid(\r\n        uint256 tokenId,\r\n        Bid memory bid,\r\n        address spender\r\n    ) payable public override onlyMediaCaller {\r\n        BidShares memory bidShares = _bidShares[tokenId];\r\n        require(\r\n            bidShares.creator.value.add(bid.sellOnShare.value) <=\r\n                uint256(100).mul(Decimal.BASE),\r\n            \"Market: Sell on fee invalid for share splitting\"\r\n        );\r\n        require(bid.bidder != address(0), \"Market: bidder cannot be 0 address\");\r\n        require(bid.amount != 0, \"Market: cannot bid amount of 0\");\r\n        \r\n        require(\r\n            bid.recipient != address(0),\r\n            \"Market: bid recipient cannot be 0 address\"\r\n        );\r\n\r\n        Bid storage existingBid = _tokenBidders[tokenId][bid.bidder];\r\n\r\n        // If there is an existing bid, refund it before continuing\r\n        if (existingBid.amount > 0) {\r\n            removeBid(tokenId, bid.bidder);\r\n        }\r\n\r\n        _tokenBidders[tokenId][bid.bidder] = Bid(\r\n            // afterBalance.sub(beforeBalance),\r\n            msg.value, \r\n            // bid.currency,\r\n            bid.bidder,\r\n            bid.recipient,\r\n            bid.sellOnShare\r\n        );\r\n        emit BidCreated(tokenId, bid);\r\n\r\n        // If a bid meets the criteria for an ask, automatically accept the bid.\r\n        // If no ask is set or the bid does not meet the requirements, ignore.\r\n        if (\r\n            // _tokenAsks[tokenId].currency != address(0) &&\r\n            // bid.currency == _tokenAsks[tokenId].currency &&\r\n            _tokenAsks[tokenId]> 0 && \r\n            bid.amount >= _tokenAsks[tokenId]\r\n        ) {\r\n            // Finalize exchange\r\n            _finalizeNFTTransfer(tokenId, bid.bidder);\r\n        }\r\n    }\r\n\r\n    function isValidBid(uint256 tokenId, uint256 bidAmount)\r\n        public\r\n        view\r\n        override\r\n        returns (bool)\r\n    {\r\n        BidShares memory bidShares = bidSharesForToken(tokenId);\r\n        require(\r\n            isValidBidShares(bidShares),\r\n            \"Market: Invalid bid shares for token\"\r\n        );\r\n        return        bidAmount != 0;\r\n    }\r\n\r\n    /**\r\n     * @notice Validates that the provided bid shares sum to 100\r\n     */\r\n    function isValidBidShares(BidShares memory bidShares)\r\n        public\r\n        pure\r\n        override\r\n        returns (bool)\r\n    {\r\n        return\r\n            bidShares.creator.value.add(bidShares.owner.value).add(\r\n                bidShares.prevOwner.value\r\n            ) == uint256(100).mul(Decimal.BASE);\r\n    }\r\n\r\n    /**\r\n     * @notice Removes the bid on a particular media for a bidder. The bid amount\r\n     * is transferred from this contract to the bidder, if they have a bid placed.\r\n     */\r\n    function removeBid(uint256 tokenId, address bidder)\r\n        public\r\n        override\r\n        onlyMediaCaller\r\n    {\r\n        Bid storage bid = _tokenBidders[tokenId][bidder];\r\n        uint256 bidAmount = bid.amount;\r\n        // address bidCurrency = bid.currency;\r\n        require(bid.amount > 0, \"Market: cannot remove bid amount of 0\");\r\n\r\n        // IERC20 token = IERC20(bidCurrency);\r\n\r\n        emit BidRemoved(tokenId, bid);\r\n        delete _tokenBidders[tokenId][bidder];\r\n        payable(bidder).transfer(bidAmount);\r\n        // token.safeTransfer(bidder, bidAmount);\r\n    }\r\n\r\n    /**\r\n     * @notice Accepts a bid from a particular bidder. Can only be called by the media contract.\r\n     * See {_finalizeNFTTransfer}\r\n     * Provided bid must match a bid in storage. This is to prevent a race condition\r\n     * where a bid may change while the acceptBid call is in transit.\r\n     * A bid cannot be accepted if it cannot be split equally into its shareholders.\r\n     * This should only revert in rare instances (example, a low bid with a zero-decimal token),\r\n     * but is necessary to ensure fairness to all shareholders.\r\n     */\r\n    function acceptBid(uint256 tokenId, Bid calldata expectedBid)\r\n        external\r\n        override\r\n        onlyMediaCaller\r\n    {\r\n        Bid memory bid = _tokenBidders[tokenId][expectedBid.bidder];\r\n        require(bid.amount > 0, \"Market: cannot accept bid of 0\");\r\n        require(\r\n            bid.amount == expectedBid.amount &&\r\n                // bid.currency == expectedBid.currency &&\r\n                bid.sellOnShare.value == expectedBid.sellOnShare.value &&\r\n                bid.recipient == expectedBid.recipient,\r\n            \"Market: Unexpected bid found.\"\r\n        );\r\n        require(\r\n            isValidBid(tokenId, bid.amount),\r\n            \"Market: Bid invalid for share splitting\"\r\n        );\r\n\r\n        _finalizeNFTTransfer(tokenId, bid.bidder);\r\n    }\r\n\r\n    /**\r\n     * @notice return a % of the specified amount. This function is used to split a bid into shares\r\n     * for a media's shareholders.\r\n     */\r\n    function splitShare(Decimal.D256 memory sharePercentage, uint256 amount)\r\n        public\r\n        pure\r\n        override\r\n        returns (uint256)\r\n    {\r\n        return Decimal.mul(amount, sharePercentage).div(100);\r\n    }\r\n\r\n    /**\r\n     * @notice Sets bid shares for a particular tokenId. These bid shares must\r\n     * sum to 100.\r\n     */\r\n    function setBidShares(uint256 tokenId, BidShares memory bidShares)\r\n        public\r\n        override\r\n        onlyMediaCaller\r\n    {\r\n        require(\r\n            isValidBidShares(bidShares),\r\n            \"Market: Invalid bid shares, must sum to 100\"\r\n        );\r\n        _bidShares[tokenId] = bidShares;\r\n        emit BidShareUpdated(tokenId, bidShares);\r\n    }\r\n\r\n    /**\r\n     * @notice Given a token ID and a bidder, this method transfers the value of\r\n     * the bid to the shareholders. It also transfers the ownership of the media\r\n     * to the bid recipient. Finally, it removes the accepted bid and the current ask.\r\n     */\r\n    function _finalizeNFTTransfer(uint256 tokenId, address bidder) private {\r\n        Bid memory bid = _tokenBidders[tokenId][bidder];\r\n        BidShares storage bidShares = _bidShares[tokenId];\r\n\r\n        // IERC20 token = IERC20(bid.currency);\r\n\r\n        uint256  ownerAmount;\r\n        uint256  creatorAmount;\r\n\r\n        ownerAmount = splitShare(bidShares.owner, bid.amount);\r\n        creatorAmount = splitShare(bidShares.creator, bid.amount);\r\n\r\n        payable(IERC721(mediaContract).ownerOf(tokenId)).transfer(ownerAmount);\r\n        payable(Media(mediaContract).tokenCreators(tokenId)).transfer(creatorAmount);\r\n\r\n        // Transfer media to bid recipient\r\n        Media(mediaContract).auctionTransfer(tokenId, bid.recipient);\r\n\r\n        // Calculate the bid share for the new owner,\r\n        // equal to 100 - creatorShare - sellOnShare\r\n        bidShares.owner = Decimal.D256(\r\n            uint256(100)\r\n                .mul(Decimal.BASE)\r\n                .sub(_bidShares[tokenId].creator.value)\r\n                .sub(bid.sellOnShare.value)\r\n        );\r\n        // Set the previous owner share to the accepted bid's sell-on fee\r\n        bidShares.prevOwner = bid.sellOnShare;\r\n\r\n        // Remove the accepted bid\r\n        delete _tokenBidders[tokenId][bidder];\r\n\r\n        emit BidShareUpdated(tokenId, bidShares);\r\n        emit BidFinalized(tokenId, bid);\r\n    }\r\n}",
  "sourcePath": "E:\\202202\\lou\\contracts\\contracts\\Market.sol",
  "compiler": {
    "name": "solc",
    "version": "0.6.8+commit.0bbfe453.Emscripten.clang"
  },
  "schemaVersion": "3.4.4",
  "updatedAt": "2022-02-18T14:15:07.282Z",
  "devdoc": {
    "methods": {},
    "title": "A Market for pieces of media"
  },
  "userdoc": {
    "methods": {
      "acceptBid(uint256,(uint256,address,address,(uint256)))": {
        "notice": "Accepts a bid from a particular bidder. Can only be called by the media contract. See {_finalizeNFTTransfer} Provided bid must match a bid in storage. This is to prevent a race condition where a bid may change while the acceptBid call is in transit. A bid cannot be accepted if it cannot be split equally into its shareholders. This should only revert in rare instances (example, a low bid with a zero-decimal token), but is necessary to ensure fairness to all shareholders."
      },
      "configure(address)": {
        "notice": "Sets the media contract address. This address is the only permitted address that can call the mutable functions. This method can only be called once."
      },
      "isValidBidShares(((uint256),(uint256),(uint256)))": {
        "notice": "Validates that the provided bid shares sum to 100"
      },
      "removeAsk(uint256)": {
        "notice": "removes an ask for a token and emits an AskRemoved event"
      },
      "removeBid(uint256,address)": {
        "notice": "Removes the bid on a particular media for a bidder. The bid amount is transferred from this contract to the bidder, if they have a bid placed."
      },
      "setAsk(uint256,uint256)": {
        "notice": "Sets the ask on a particular media. If the ask cannot be evenly split into the media's bid shares, this reverts."
      },
      "setBid(uint256,(uint256,address,address,(uint256)),address)": {
        "notice": "Sets the bid on a particular media for a bidder. The token being used to bid is transferred from the spender to this contract to be held until removed or accepted. If another bid already exists for the bidder, it is refunded."
      },
      "setBidShares(uint256,((uint256),(uint256),(uint256)))": {
        "notice": "Sets bid shares for a particular tokenId. These bid shares must sum to 100."
      },
      "splitShare((uint256),uint256)": {
        "notice": "return a % of the specified amount. This function is used to split a bid into shares for a media's shareholders."
      }
    },
    "notice": "This contract contains all of the market logic for Media"
  }
}