{
  "contractName": "Media",
  "abi": [
    {
      "inputs": [
        {
          "internalType": "address",
          "name": "marketContractAddr",
          "type": "address"
        }
      ],
      "stateMutability": "nonpayable",
      "type": "constructor"
    },
    {
      "anonymous": false,
      "inputs": [
        {
          "indexed": true,
          "internalType": "address",
          "name": "owner",
          "type": "address"
        },
        {
          "indexed": true,
          "internalType": "address",
          "name": "approved",
          "type": "address"
        },
        {
          "indexed": true,
          "internalType": "uint256",
          "name": "tokenId",
          "type": "uint256"
        }
      ],
      "name": "Approval",
      "type": "event"
    },
    {
      "anonymous": false,
      "inputs": [
        {
          "indexed": true,
          "internalType": "address",
          "name": "owner",
          "type": "address"
        },
        {
          "indexed": true,
          "internalType": "address",
          "name": "operator",
          "type": "address"
        },
        {
          "indexed": false,
          "internalType": "bool",
          "name": "approved",
          "type": "bool"
        }
      ],
      "name": "ApprovalForAll",
      "type": "event"
    },
    {
      "anonymous": false,
      "inputs": [
        {
          "indexed": true,
          "internalType": "uint256",
          "name": "_tokenId",
          "type": "uint256"
        },
        {
          "indexed": false,
          "internalType": "address",
          "name": "owner",
          "type": "address"
        },
        {
          "indexed": false,
          "internalType": "string",
          "name": "_uri",
          "type": "string"
        }
      ],
      "name": "TokenMetadataURIUpdated",
      "type": "event"
    },
    {
      "anonymous": false,
      "inputs": [
        {
          "indexed": true,
          "internalType": "uint256",
          "name": "_tokenId",
          "type": "uint256"
        },
        {
          "indexed": false,
          "internalType": "address",
          "name": "owner",
          "type": "address"
        },
        {
          "indexed": false,
          "internalType": "string",
          "name": "_uri",
          "type": "string"
        }
      ],
      "name": "TokenURIUpdated",
      "type": "event"
    },
    {
      "anonymous": false,
      "inputs": [
        {
          "indexed": true,
          "internalType": "address",
          "name": "from",
          "type": "address"
        },
        {
          "indexed": true,
          "internalType": "address",
          "name": "to",
          "type": "address"
        },
        {
          "indexed": true,
          "internalType": "uint256",
          "name": "tokenId",
          "type": "uint256"
        }
      ],
      "name": "Transfer",
      "type": "event"
    },
    {
      "inputs": [],
      "name": "MINT_WITH_SIG_TYPEHASH",
      "outputs": [
        {
          "internalType": "bytes32",
          "name": "",
          "type": "bytes32"
        }
      ],
      "stateMutability": "view",
      "type": "function"
    },
    {
      "inputs": [],
      "name": "PERMIT_TYPEHASH",
      "outputs": [
        {
          "internalType": "bytes32",
          "name": "",
          "type": "bytes32"
        }
      ],
      "stateMutability": "view",
      "type": "function"
    },
    {
      "inputs": [
        {
          "internalType": "address",
          "name": "to",
          "type": "address"
        },
        {
          "internalType": "uint256",
          "name": "tokenId",
          "type": "uint256"
        }
      ],
      "name": "approve",
      "outputs": [],
      "stateMutability": "nonpayable",
      "type": "function"
    },
    {
      "inputs": [
        {
          "internalType": "address",
          "name": "owner",
          "type": "address"
        }
      ],
      "name": "balanceOf",
      "outputs": [
        {
          "internalType": "uint256",
          "name": "",
          "type": "uint256"
        }
      ],
      "stateMutability": "view",
      "type": "function"
    },
    {
      "inputs": [],
      "name": "baseURI",
      "outputs": [
        {
          "internalType": "string",
          "name": "",
          "type": "string"
        }
      ],
      "stateMutability": "view",
      "type": "function"
    },
    {
      "inputs": [
        {
          "internalType": "uint256",
          "name": "tokenId",
          "type": "uint256"
        }
      ],
      "name": "getApproved",
      "outputs": [
        {
          "internalType": "address",
          "name": "",
          "type": "address"
        }
      ],
      "stateMutability": "view",
      "type": "function"
    },
    {
      "inputs": [
        {
          "internalType": "address",
          "name": "owner",
          "type": "address"
        },
        {
          "internalType": "address",
          "name": "operator",
          "type": "address"
        }
      ],
      "name": "isApprovedForAll",
      "outputs": [
        {
          "internalType": "bool",
          "name": "",
          "type": "bool"
        }
      ],
      "stateMutability": "view",
      "type": "function"
    },
    {
      "inputs": [],
      "name": "marketContract",
      "outputs": [
        {
          "internalType": "address",
          "name": "",
          "type": "address"
        }
      ],
      "stateMutability": "view",
      "type": "function"
    },
    {
      "inputs": [
        {
          "internalType": "address",
          "name": "",
          "type": "address"
        }
      ],
      "name": "mintWithSigNonces",
      "outputs": [
        {
          "internalType": "uint256",
          "name": "",
          "type": "uint256"
        }
      ],
      "stateMutability": "view",
      "type": "function"
    },
    {
      "inputs": [],
      "name": "name",
      "outputs": [
        {
          "internalType": "string",
          "name": "",
          "type": "string"
        }
      ],
      "stateMutability": "view",
      "type": "function"
    },
    {
      "inputs": [
        {
          "internalType": "uint256",
          "name": "tokenId",
          "type": "uint256"
        }
      ],
      "name": "ownerOf",
      "outputs": [
        {
          "internalType": "address",
          "name": "",
          "type": "address"
        }
      ],
      "stateMutability": "view",
      "type": "function"
    },
    {
      "inputs": [
        {
          "internalType": "address",
          "name": "",
          "type": "address"
        },
        {
          "internalType": "uint256",
          "name": "",
          "type": "uint256"
        }
      ],
      "name": "permitNonces",
      "outputs": [
        {
          "internalType": "uint256",
          "name": "",
          "type": "uint256"
        }
      ],
      "stateMutability": "view",
      "type": "function"
    },
    {
      "inputs": [
        {
          "internalType": "uint256",
          "name": "",
          "type": "uint256"
        }
      ],
      "name": "previousTokenOwners",
      "outputs": [
        {
          "internalType": "address",
          "name": "",
          "type": "address"
        }
      ],
      "stateMutability": "view",
      "type": "function"
    },
    {
      "inputs": [
        {
          "internalType": "address",
          "name": "from",
          "type": "address"
        },
        {
          "internalType": "address",
          "name": "to",
          "type": "address"
        },
        {
          "internalType": "uint256",
          "name": "tokenId",
          "type": "uint256"
        }
      ],
      "name": "safeTransferFrom",
      "outputs": [],
      "stateMutability": "nonpayable",
      "type": "function"
    },
    {
      "inputs": [
        {
          "internalType": "address",
          "name": "from",
          "type": "address"
        },
        {
          "internalType": "address",
          "name": "to",
          "type": "address"
        },
        {
          "internalType": "uint256",
          "name": "tokenId",
          "type": "uint256"
        },
        {
          "internalType": "bytes",
          "name": "_data",
          "type": "bytes"
        }
      ],
      "name": "safeTransferFrom",
      "outputs": [],
      "stateMutability": "nonpayable",
      "type": "function"
    },
    {
      "inputs": [
        {
          "internalType": "address",
          "name": "operator",
          "type": "address"
        },
        {
          "internalType": "bool",
          "name": "approved",
          "type": "bool"
        }
      ],
      "name": "setApprovalForAll",
      "outputs": [],
      "stateMutability": "nonpayable",
      "type": "function"
    },
    {
      "inputs": [
        {
          "internalType": "bytes4",
          "name": "interfaceId",
          "type": "bytes4"
        }
      ],
      "name": "supportsInterface",
      "outputs": [
        {
          "internalType": "bool",
          "name": "",
          "type": "bool"
        }
      ],
      "stateMutability": "view",
      "type": "function"
    },
    {
      "inputs": [],
      "name": "symbol",
      "outputs": [
        {
          "internalType": "string",
          "name": "",
          "type": "string"
        }
      ],
      "stateMutability": "view",
      "type": "function"
    },
    {
      "inputs": [
        {
          "internalType": "uint256",
          "name": "index",
          "type": "uint256"
        }
      ],
      "name": "tokenByIndex",
      "outputs": [
        {
          "internalType": "uint256",
          "name": "",
          "type": "uint256"
        }
      ],
      "stateMutability": "view",
      "type": "function"
    },
    {
      "inputs": [
        {
          "internalType": "uint256",
          "name": "",
          "type": "uint256"
        }
      ],
      "name": "tokenContentHashes",
      "outputs": [
        {
          "internalType": "bytes32",
          "name": "",
          "type": "bytes32"
        }
      ],
      "stateMutability": "view",
      "type": "function"
    },
    {
      "inputs": [
        {
          "internalType": "uint256",
          "name": "",
          "type": "uint256"
        }
      ],
      "name": "tokenCreators",
      "outputs": [
        {
          "internalType": "address",
          "name": "",
          "type": "address"
        }
      ],
      "stateMutability": "view",
      "type": "function"
    },
    {
      "inputs": [
        {
          "internalType": "uint256",
          "name": "",
          "type": "uint256"
        }
      ],
      "name": "tokenMetadataHashes",
      "outputs": [
        {
          "internalType": "bytes32",
          "name": "",
          "type": "bytes32"
        }
      ],
      "stateMutability": "view",
      "type": "function"
    },
    {
      "inputs": [
        {
          "internalType": "address",
          "name": "owner",
          "type": "address"
        },
        {
          "internalType": "uint256",
          "name": "index",
          "type": "uint256"
        }
      ],
      "name": "tokenOfOwnerByIndex",
      "outputs": [
        {
          "internalType": "uint256",
          "name": "",
          "type": "uint256"
        }
      ],
      "stateMutability": "view",
      "type": "function"
    },
    {
      "inputs": [],
      "name": "totalSupply",
      "outputs": [
        {
          "internalType": "uint256",
          "name": "",
          "type": "uint256"
        }
      ],
      "stateMutability": "view",
      "type": "function"
    },
    {
      "inputs": [
        {
          "internalType": "address",
          "name": "from",
          "type": "address"
        },
        {
          "internalType": "address",
          "name": "to",
          "type": "address"
        },
        {
          "internalType": "uint256",
          "name": "tokenId",
          "type": "uint256"
        }
      ],
      "name": "transferFrom",
      "outputs": [],
      "stateMutability": "nonpayable",
      "type": "function"
    },
    {
      "inputs": [
        {
          "internalType": "uint256",
          "name": "tokenId",
          "type": "uint256"
        }
      ],
      "name": "tokenURI",
      "outputs": [
        {
          "internalType": "string",
          "name": "",
          "type": "string"
        }
      ],
      "stateMutability": "view",
      "type": "function"
    },
    {
      "inputs": [
        {
          "internalType": "uint256",
          "name": "tokenId",
          "type": "uint256"
        }
      ],
      "name": "tokenMetadataURI",
      "outputs": [
        {
          "internalType": "string",
          "name": "",
          "type": "string"
        }
      ],
      "stateMutability": "view",
      "type": "function"
    },
    {
      "inputs": [
        {
          "components": [
            {
              "internalType": "string",
              "name": "tokenURI",
              "type": "string"
            },
            {
              "internalType": "string",
              "name": "metadataURI",
              "type": "string"
            },
            {
              "internalType": "bytes32",
              "name": "contentHash",
              "type": "bytes32"
            },
            {
              "internalType": "bytes32",
              "name": "metadataHash",
              "type": "bytes32"
            }
          ],
          "internalType": "struct IMedia.MediaData",
          "name": "data",
          "type": "tuple"
        }
      ],
      "name": "mint",
      "outputs": [],
      "stateMutability": "nonpayable",
      "type": "function"
    },
    {
      "inputs": [
        {
          "internalType": "address",
          "name": "creator",
          "type": "address"
        },
        {
          "components": [
            {
              "internalType": "string",
              "name": "tokenURI",
              "type": "string"
            },
            {
              "internalType": "string",
              "name": "metadataURI",
              "type": "string"
            },
            {
              "internalType": "bytes32",
              "name": "contentHash",
              "type": "bytes32"
            },
            {
              "internalType": "bytes32",
              "name": "metadataHash",
              "type": "bytes32"
            }
          ],
          "internalType": "struct IMedia.MediaData",
          "name": "data",
          "type": "tuple"
        },
        {
          "components": [
            {
              "components": [
                {
                  "internalType": "uint256",
                  "name": "value",
                  "type": "uint256"
                }
              ],
              "internalType": "struct Decimal.D256",
              "name": "prevOwner",
              "type": "tuple"
            },
            {
              "components": [
                {
                  "internalType": "uint256",
                  "name": "value",
                  "type": "uint256"
                }
              ],
              "internalType": "struct Decimal.D256",
              "name": "creator",
              "type": "tuple"
            },
            {
              "components": [
                {
                  "internalType": "uint256",
                  "name": "value",
                  "type": "uint256"
                }
              ],
              "internalType": "struct Decimal.D256",
              "name": "owner",
              "type": "tuple"
            }
          ],
          "internalType": "struct IMarket.BidShares",
          "name": "bidShares",
          "type": "tuple"
        },
        {
          "components": [
            {
              "internalType": "uint256",
              "name": "deadline",
              "type": "uint256"
            },
            {
              "internalType": "uint8",
              "name": "v",
              "type": "uint8"
            },
            {
              "internalType": "bytes32",
              "name": "r",
              "type": "bytes32"
            },
            {
              "internalType": "bytes32",
              "name": "s",
              "type": "bytes32"
            }
          ],
          "internalType": "struct IMedia.EIP712Signature",
          "name": "sig",
          "type": "tuple"
        }
      ],
      "name": "mintWithSig",
      "outputs": [],
      "stateMutability": "nonpayable",
      "type": "function"
    },
    {
      "inputs": [
        {
          "internalType": "uint256",
          "name": "tokenId",
          "type": "uint256"
        },
        {
          "internalType": "address",
          "name": "recipient",
          "type": "address"
        }
      ],
      "name": "auctionTransfer",
      "outputs": [],
      "stateMutability": "nonpayable",
      "type": "function"
    },
    {
      "inputs": [
        {
          "internalType": "uint256",
          "name": "tokenId",
          "type": "uint256"
        },
        {
          "internalType": "uint256",
          "name": "ask",
          "type": "uint256"
        }
      ],
      "name": "setAsk",
      "outputs": [],
      "stateMutability": "nonpayable",
      "type": "function"
    },
    {
      "inputs": [
        {
          "internalType": "uint256",
          "name": "tokenId",
          "type": "uint256"
        }
      ],
      "name": "removeAsk",
      "outputs": [],
      "stateMutability": "nonpayable",
      "type": "function"
    },
    {
      "inputs": [
        {
          "internalType": "uint256",
          "name": "tokenId",
          "type": "uint256"
        },
        {
          "components": [
            {
              "internalType": "uint256",
              "name": "amount",
              "type": "uint256"
            },
            {
              "internalType": "address",
              "name": "bidder",
              "type": "address"
            },
            {
              "internalType": "address",
              "name": "recipient",
              "type": "address"
            },
            {
              "components": [
                {
                  "internalType": "uint256",
                  "name": "value",
                  "type": "uint256"
                }
              ],
              "internalType": "struct Decimal.D256",
              "name": "sellOnShare",
              "type": "tuple"
            }
          ],
          "internalType": "struct IMarket.Bid",
          "name": "bid",
          "type": "tuple"
        }
      ],
      "name": "setBid",
      "outputs": [],
      "stateMutability": "payable",
      "type": "function"
    },
    {
      "inputs": [
        {
          "internalType": "uint256",
          "name": "tokenId",
          "type": "uint256"
        }
      ],
      "name": "removeBid",
      "outputs": [],
      "stateMutability": "nonpayable",
      "type": "function"
    },
    {
      "inputs": [
        {
          "internalType": "uint256",
          "name": "tokenId",
          "type": "uint256"
        },
        {
          "components": [
            {
              "internalType": "uint256",
              "name": "amount",
              "type": "uint256"
            },
            {
              "internalType": "address",
              "name": "bidder",
              "type": "address"
            },
            {
              "internalType": "address",
              "name": "recipient",
              "type": "address"
            },
            {
              "components": [
                {
                  "internalType": "uint256",
                  "name": "value",
                  "type": "uint256"
                }
              ],
              "internalType": "struct Decimal.D256",
              "name": "sellOnShare",
              "type": "tuple"
            }
          ],
          "internalType": "struct IMarket.Bid",
          "name": "bid",
          "type": "tuple"
        }
      ],
      "name": "acceptBid",
      "outputs": [],
      "stateMutability": "nonpayable",
      "type": "function"
    },
    {
      "inputs": [
        {
          "internalType": "uint256",
          "name": "tokenId",
          "type": "uint256"
        }
      ],
      "name": "burn",
      "outputs": [],
      "stateMutability": "nonpayable",
      "type": "function"
    },
    {
      "inputs": [
        {
          "internalType": "uint256",
          "name": "tokenId",
          "type": "uint256"
        }
      ],
      "name": "revokeApproval",
      "outputs": [],
      "stateMutability": "nonpayable",
      "type": "function"
    },
    {
      "inputs": [
        {
          "internalType": "uint256",
          "name": "tokenId",
          "type": "uint256"
        },
        {
          "internalType": "string",
          "name": "tokenURI",
          "type": "string"
        }
      ],
      "name": "updateTokenURI",
      "outputs": [],
      "stateMutability": "nonpayable",
      "type": "function"
    },
    {
      "inputs": [
        {
          "internalType": "uint256",
          "name": "tokenId",
          "type": "uint256"
        },
        {
          "internalType": "string",
          "name": "metadataURI",
          "type": "string"
        }
      ],
      "name": "updateTokenMetadataURI",
      "outputs": [],
      "stateMutability": "nonpayable",
      "type": "function"
    },
    {
      "inputs": [
        {
          "internalType": "address",
          "name": "spender",
          "type": "address"
        },
        {
          "internalType": "uint256",
          "name": "tokenId",
          "type": "uint256"
        },
        {
          "components": [
            {
              "internalType": "uint256",
              "name": "deadline",
              "type": "uint256"
            },
            {
              "internalType": "uint8",
              "name": "v",
              "type": "uint8"
            },
            {
              "internalType": "bytes32",
              "name": "r",
              "type": "bytes32"
            },
            {
              "internalType": "bytes32",
              "name": "s",
              "type": "bytes32"
            }
          ],
          "internalType": "struct IMedia.EIP712Signature",
          "name": "sig",
          "type": "tuple"
        }
      ],
      "name": "permit",
      "outputs": [],
      "stateMutability": "nonpayable",
      "type": "function"
    },
    {
      "inputs": [],
      "name": "getTokenCount",
      "outputs": [
        {
          "internalType": "uint256",
          "name": "",
          "type": "uint256"
        }
      ],
      "stateMutability": "view",
      "type": "function"
    }
  ],
  "bytecode": "0x60806040523480156200001157600080fd5b5060405162006c3538038062006c35833981810160405281019062000037919062000325565b6040518060400160405280600381526020017f58595a00000000000000000000000000000000000000000000000000000000008152506040518060400160405280600381526020017f58595a0000000000000000000000000000000000000000000000000000000000815250620000bb6301ffc9a760e01b6200018760201b60201c565b8160069080519060200190620000d39291906200025f565b508060079080519060200190620000ec9291906200025f565b50620001056380ac58cd60e01b6200018760201b60201c565b6200011d63780e9d6360e01b6200018760201b60201c565b50506001600a8190555080600b60006101000a81548173ffffffffffffffffffffffffffffffffffffffff021916908373ffffffffffffffffffffffffffffffffffffffff16021790555062000180634e222e6660e01b6200018760201b60201c565b5062000414565b63ffffffff60e01b817bffffffffffffffffffffffffffffffffffffffffffffffffffffffff19161415620001f3576040517f08c379a0000000000000000000000000000000000000000000000000000000008152600401620001ea9062000393565b60405180910390fd5b6001600080837bffffffffffffffffffffffffffffffffffffffffffffffffffffffff19167bffffffffffffffffffffffffffffffffffffffffffffffffffffffff1916815260200190815260200160002060006101000a81548160ff02191690831515021790555050565b828054600181600116156101000203166002900490600052602060002090601f016020900481019282601f10620002a257805160ff1916838001178555620002d3565b82800160010185558215620002d3579182015b82811115620002d2578251825591602001919060010190620002b5565b5b509050620002e29190620002e6565b5090565b6200030b91905b8082111562000307576000816000905550600101620002ed565b5090565b90565b6000815190506200031f81620003fa565b92915050565b6000602082840312156200033857600080fd5b600062000348848285016200030e565b91505092915050565b600062000360601c83620003b5565b91507f4552433136353a20696e76616c696420696e74657266616365206964000000006000830152602082019050919050565b60006020820190508181036000830152620003ae8162000351565b9050919050565b600082825260208201905092915050565b6000620003d382620003da565b9050919050565b600073ffffffffffffffffffffffffffffffffffffffff82169050919050565b6200040581620003c6565b81146200041157600080fd5b50565b61681180620004246000396000f3fe6080604052600436106102465760003560e01c80636c0360eb11610139578063b320f459116100b6578063e0fd045f1161007a578063e0fd045f146108c5578063e49f876814610902578063e985e9c51461092b578063f6b630f014610968578063f8ccd5de14610991578063fad32197146109ce57610246565b8063b320f459146107e2578063b501806e1461080b578063b88d4fde14610834578063c87b56dd1461085d578063de5236fb1461089a57610246565b806395d89b41116100fd57806395d89b41146106fd5780639d8e726014610728578063a1794bcd14610765578063a22cb46514610790578063b1e130fc146107b957610246565b80636c0360eb1461061857806370a082311461064357806375682e791461068057806378a89567146106a95780637a7a1202146106d457610246565b806318e97fd1116101c757806342842e0e1161018b57806342842e0e1461053057806342966c68146105595780634f6ccce7146105825780636352211e146105bf5780636bbfbb51146105fc57610246565b806318e97fd11461044d57806323b872dd1461047657806328220f351461049f5780632f745c59146104c857806330adf81f1461050557610246565b80630bcd899b1161020e5780630bcd899b146103565780630e2a1778146103935780630efcb289146103bc578063157c3df9146103e557806318160ddd1461042257610246565b806301ddc3b51461024b57806301ffc9a71461028857806306fdde03146102c5578063081812fc146102f0578063095ea7b31461032d575b600080fd5b34801561025757600080fd5b50610272600480360381019061026d9190614c51565b610a0b565b60405161027f9190615df4565b60405180910390f35b34801561029457600080fd5b506102af60048036038101906102aa9190614bbe565b610a23565b6040516102bc9190615dd9565b60405180910390f35b3480156102d157600080fd5b506102da610a8a565b6040516102e79190615f5b565b60405180910390f35b3480156102fc57600080fd5b5061031760048036038101906103129190614c51565b610b2c565b6040516103249190615d40565b60405180910390f35b34801561033957600080fd5b50610354600480360381019061034f9190614b33565b610bb1565b005b34801561036257600080fd5b5061037d6004803603810190610378919061494c565b610cc9565b60405161038a91906163fd565b60405180910390f35b34801561039f57600080fd5b506103ba60048036038101906103b59190614b6f565b610ce1565b005b3480156103c857600080fd5b506103e360048036038101906103de9190614c10565b61105b565b005b3480156103f157600080fd5b5061040c60048036038101906104079190614c51565b61113e565b6040516104199190615f5b565b60405180910390f35b34801561042e57600080fd5b50610437611240565b60405161044491906163fd565b60405180910390f35b34801561045957600080fd5b50610474600480360381019061046f9190614cb6565b611251565b005b34801561048257600080fd5b5061049d600480360381019061049891906149b1565b611469565b005b3480156104ab57600080fd5b506104c660048036038101906104c19190614c51565b6114c9565b005b3480156104d457600080fd5b506104ef60048036038101906104ea9190614b33565b6115fc565b6040516104fc91906163fd565b60405180910390f35b34801561051157600080fd5b5061051a611657565b6040516105279190615df4565b60405180910390f35b34801561053c57600080fd5b50610557600480360381019061055291906149b1565b61167e565b005b34801561056557600080fd5b50610580600480360381019061057b9190614c51565b61169e565b005b34801561058e57600080fd5b506105a960048036038101906105a49190614c51565b611846565b6040516105b691906163fd565b60405180910390f35b3480156105cb57600080fd5b506105e660048036038101906105e19190614c51565b611869565b6040516105f39190615d40565b60405180910390f35b61061660048036038101906106119190614d0e565b6118a0565b005b34801561062457600080fd5b5061062d611a8e565b60405161063a9190615f5b565b60405180910390f35b34801561064f57600080fd5b5061066a6004803603810190610665919061494c565b611b30565b60405161067791906163fd565b60405180910390f35b34801561068c57600080fd5b506106a760048036038101906106a29190614cb6565b611bef565b005b3480156106b557600080fd5b506106be611e07565b6040516106cb91906163fd565b60405180910390f35b3480156106e057600080fd5b506106fb60048036038101906106f69190614ab7565b611e18565b005b34801561070957600080fd5b506107126120cb565b60405161071f9190615f5b565b60405180910390f35b34801561073457600080fd5b5061074f600480360381019061074a9190614c51565b61216d565b60405161075c9190615d40565b60405180910390f35b34801561077157600080fd5b5061077a6121a0565b6040516107879190615d40565b60405180910390f35b34801561079c57600080fd5b506107b760048036038101906107b29190614a7b565b6121c6565b005b3480156107c557600080fd5b506107e060048036038101906107db9190614c51565b612347565b005b3480156107ee57600080fd5b5061080960048036038101906108049190614c51565b612421565b005b34801561081757600080fd5b50610832600480360381019061082d9190614d0e565b612556565b005b34801561084057600080fd5b5061085b60048036038101906108569190614a00565b61268c565b005b34801561086957600080fd5b50610884600480360381019061087f9190614c51565b6126ee565b6040516108919190615f5b565b60405180910390f35b3480156108a657600080fd5b506108af6127f6565b6040516108bc9190615df4565b60405180910390f35b3480156108d157600080fd5b506108ec60048036038101906108e79190614c51565b61281d565b6040516108f99190615d40565b60405180910390f35b34801561090e57600080fd5b5061092960048036038101906109249190614d4a565b612850565b005b34801561093757600080fd5b50610952600480360381019061094d9190614975565b612986565b60405161095f9190615dd9565b60405180910390f35b34801561097457600080fd5b5061098f600480360381019061098a9190614c7a565b612a1a565b005b34801561099d57600080fd5b506109b860048036038101906109b39190614b33565b612b2b565b6040516109c591906163fd565b60405180910390f35b3480156109da57600080fd5b506109f560048036038101906109f09190614c51565b612b50565b604051610a029190615df4565b60405180910390f35b60106020528060005260406000206000915090505481565b6000806000837bffffffffffffffffffffffffffffffffffffffffffffffffffffffff19167bffffffffffffffffffffffffffffffffffffffffffffffffffffffff1916815260200190815260200160002060009054906101000a900460ff169050919050565b606060068054600181600116156101000203166002900480601f016020809104026020016040519081016040528092919081815260200182805460018160011615610100020316600290048015610b225780601f10610af757610100808354040283529160200191610b22565b820191906000526020600020905b815481529060010190602001808311610b0557829003601f168201915b5050505050905090565b6000610b3782612b68565b610b76576040517f08c379a0000000000000000000000000000000000000000000000000000000008152600401610b6d9061623d565b60405180910390fd5b6004600083815260200190815260200160002060009054906101000a900473ffffffffffffffffffffffffffffffffffffffff169050919050565b6000610bbc82611869565b90508073ffffffffffffffffffffffffffffffffffffffff168373ffffffffffffffffffffffffffffffffffffffff161415610c2d576040517f08c379a0000000000000000000000000000000000000000000000000000000008152600401610c24906162fd565b60405180910390fd5b8073ffffffffffffffffffffffffffffffffffffffff16610c4c612b85565b73ffffffffffffffffffffffffffffffffffffffff161480610c7b5750610c7a81610c75612b85565b612986565b5b610cba576040517f08c379a0000000000000000000000000000000000000000000000000000000008152600401610cb19061611d565b60405180910390fd5b610cc48383612b8d565b505050565b60146020528060005260406000206000915090505481565b6002600a541415610d27576040517f08c379a0000000000000000000000000000000000000000000000000000000008152600401610d1e906163bd565b60405180910390fd5b6002600a8190555081610d3981612b68565b610d78576040517f08c379a0000000000000000000000000000000000000000000000000000000008152600401610d6f9061639d565b60405180910390fd5b600082600001511480610d8f575042826000015110155b610dce576040517f08c379a0000000000000000000000000000000000000000000000000000000008152600401610dc59061615d565b60405180910390fd5b600073ffffffffffffffffffffffffffffffffffffffff168473ffffffffffffffffffffffffffffffffffffffff161415610e3e576040517f08c379a0000000000000000000000000000000000000000000000000000000008152600401610e3590615fdd565b60405180910390fd5b6000610e48612c46565b90506000817f49ecf333e5b8c95c40fdafc95c1ad136e8914a8fb55e9dc8bb01eaa83a2df9ad60001b878760136000610e808b611869565b73ffffffffffffffffffffffffffffffffffffffff1673ffffffffffffffffffffffffffffffffffffffff16815260200190815260200160002060008a81526020019081526020016000206000815480929190600101919050558860000151604051602001610ef3959493929190615e0f565b60405160208183030381529060405280519060200120604051602001610f1a929190615cf4565b604051602081830303815290604052805190602001209050600060018286602001518760400151886060015160405160008152602001604052604051610f639493929190615f16565b6020604051602081039080840390855afa158015610f85573d6000803e3d6000fd5b505050602060405103519050600073ffffffffffffffffffffffffffffffffffffffff168173ffffffffffffffffffffffffffffffffffffffff161415801561100157508073ffffffffffffffffffffffffffffffffffffffff16610fe987611869565b73ffffffffffffffffffffffffffffffffffffffff16145b611040576040517f08c379a00000000000000000000000000000000000000000000000000000000081526004016110379061637d565b60405180910390fd5b61104a8787612b8d565b505050506001600a81905550505050565b6002600a5414156110a1576040517f08c379a0000000000000000000000000000000000000000000000000000000008152600401611098906163bd565b60405180910390fd5b6002600a819055506110b1614470565b604051806060016040528060405180602001604052806000815250815260200160405180602001604052806110f46012600a0a600a612d0c90919063ffffffff16565b8152508152602001604051806020016040528061111f6012600a0a605a612d0c90919063ffffffff16565b8152508152509050611132338383612d7c565b506001600a8190555050565b6060818061114c6015613126565b1161118c576040517f08c379a000000000000000000000000000000000000000000000000000000000815260040161118390615f9d565b60405180910390fd5b601160008481526020019081526020016000208054600181600116156101000203166002900480601f0160208091040260200160405190810160405280929190818152602001828054600181600116156101000203166002900480156112335780601f1061120857610100808354040283529160200191611233565b820191906000526020600020905b81548152906001019060200180831161121657829003601f168201915b5050505050915050919050565b600061124c6002613134565b905090565b6002600a541415611297576040517f08c379a000000000000000000000000000000000000000000000000000000000815260040161128e906163bd565b60405180910390fd5b6002600a8190555033836112ab8282613149565b6112ea576040517f08c379a00000000000000000000000000000000000000000000000000000000081526004016112e19061627d565b60405180910390fd5b846000801b600f6000838152602001908152602001600020541415611344576040517f08c379a000000000000000000000000000000000000000000000000000000000815260040161133b906162bd565b60405180910390fd5b84848080601f016020809104026020016040519081016040528093929190818152602001838380828437600081840152601f19601f820116905080830192505050505050506000815114156113ce576040517f08c379a00000000000000000000000000000000000000000000000000000000081526004016113c5906163dd565b60405180910390fd5b61141c8787878080601f016020809104026020016040519081016040528093929190818152602001838380828437600081840152601f19601f82011690508083019250505050505050613227565b867f702fe2dc2dc0f68023540aa4a1e11811c0f29112f6ebf01e61b90538e4f2981033888860405161145093929190615da7565b60405180910390a2505050506001600a81905550505050565b61147a611474612b85565b82613149565b6114b9576040517f08c379a00000000000000000000000000000000000000000000000000000000081526004016114b09061633d565b60405180910390fd5b6114c483838361329b565b505050565b6002600a54141561150f576040517f08c379a0000000000000000000000000000000000000000000000000000000008152600401611506906163bd565b60405180910390fd5b6002600a8190555033816115238282613149565b611562576040517f08c379a00000000000000000000000000000000000000000000000000000000081526004016115599061627d565b60405180910390fd5b600b60009054906101000a900473ffffffffffffffffffffffffffffffffffffffff1673ffffffffffffffffffffffffffffffffffffffff166328220f35846040518263ffffffff1660e01b81526004016115bd91906163fd565b600060405180830381600087803b1580156115d757600080fd5b505af11580156115eb573d6000803e3d6000fd5b5050505050506001600a8190555050565b600061164f82600160008673ffffffffffffffffffffffffffffffffffffffff1673ffffffffffffffffffffffffffffffffffffffff16815260200190815260200160002061333890919063ffffffff16565b905092915050565b7f49ecf333e5b8c95c40fdafc95c1ad136e8914a8fb55e9dc8bb01eaa83a2df9ad60001b81565b6116998383836040518060200160405280600081525061268c565b505050565b6002600a5414156116e4576040517f08c379a00000000000000000000000000000000000000000000000000000000081526004016116db906163bd565b60405180910390fd5b6002600a81905550806116f681612b68565b611735576040517f08c379a000000000000000000000000000000000000000000000000000000000815260040161172c9061639d565b60405180910390fd5b33826117418282613149565b611780576040517f08c379a00000000000000000000000000000000000000000000000000000000081526004016117779061627d565b60405180910390fd5b600061178b85611869565b90508073ffffffffffffffffffffffffffffffffffffffff16600d600087815260200190815260200160002060009054906101000a900473ffffffffffffffffffffffffffffffffffffffff1673ffffffffffffffffffffffffffffffffffffffff161461182e576040517f08c379a0000000000000000000000000000000000000000000000000000000008152600401611825906161fd565b60405180910390fd5b61183785613352565b505050506001600a8190555050565b60008061185d83600261347790919063ffffffff16565b50905080915050919050565b6000611899826040518060600160405280602981526020016167b36029913960026134a69092919063ffffffff16565b9050919050565b6002600a5414156118e6576040517f08c379a00000000000000000000000000000000000000000000000000000000081526004016118dd906163bd565b60405180910390fd5b6002600a81905550816118f881612b68565b611937576040517f08c379a000000000000000000000000000000000000000000000000000000000815260040161192e9061639d565b60405180910390fd5b8160000151341461197d576040517f08c379a0000000000000000000000000000000000000000000000000000000008152600401611974906160fd565b60405180910390fd5b816020015173ffffffffffffffffffffffffffffffffffffffff163373ffffffffffffffffffffffffffffffffffffffff16146119ef576040517f08c379a00000000000000000000000000000000000000000000000000000000081526004016119e69061601d565b60405180910390fd5b600b60009054906101000a900473ffffffffffffffffffffffffffffffffffffffff1673ffffffffffffffffffffffffffffffffffffffff16637ccb5f6f348585336040518563ffffffff1660e01b8152600401611a4f93929190616493565b6000604051808303818588803b158015611a6857600080fd5b505af1158015611a7c573d6000803e3d6000fd5b5050505050506001600a819055505050565b606060098054600181600116156101000203166002900480601f016020809104026020016040519081016040528092919081815260200182805460018160011615610100020316600290048015611b265780601f10611afb57610100808354040283529160200191611b26565b820191906000526020600020905b815481529060010190602001808311611b0957829003601f168201915b5050505050905090565b60008073ffffffffffffffffffffffffffffffffffffffff168273ffffffffffffffffffffffffffffffffffffffff161415611ba1576040517f08c379a0000000000000000000000000000000000000000000000000000000008152600401611b989061613d565b60405180910390fd5b611be8600160008473ffffffffffffffffffffffffffffffffffffffff1673ffffffffffffffffffffffffffffffffffffffff1681526020019081526020016000206134c5565b9050919050565b6002600a541415611c35576040517f08c379a0000000000000000000000000000000000000000000000000000000008152600401611c2c906163bd565b60405180910390fd5b6002600a819055503383611c498282613149565b611c88576040517f08c379a0000000000000000000000000000000000000000000000000000000008152600401611c7f9061627d565b60405180910390fd5b846000801b60106000838152602001908152602001600020541415611ce2576040517f08c379a0000000000000000000000000000000000000000000000000000000008152600401611cd99061609d565b60405180910390fd5b84848080601f016020809104026020016040519081016040528093929190818152602001838380828437600081840152601f19601f82011690508083019250505050505050600081511415611d6c576040517f08c379a0000000000000000000000000000000000000000000000000000000008152600401611d63906163dd565b60405180910390fd5b611dba8787878080601f016020809104026020016040519081016040528093929190818152602001838380828437600081840152601f19601f820116905080830192505050505050506134da565b867fe3df41127db820c79e5b8d541a63e40e3e97b9af96f7a50bded13091b70df9ae338888604051611dee93929190615da7565b60405180910390a2505050506001600a81905550505050565b6000611e136015613126565b905090565b6002600a541415611e5e576040517f08c379a0000000000000000000000000000000000000000000000000000000008152600401611e55906163bd565b60405180910390fd5b6002600a81905550600081600001511480611e7d575042816000015110155b611ebc576040517f08c379a0000000000000000000000000000000000000000000000000000000008152600401611eb39061631d565b60405180910390fd5b6000611ec6612c46565b90506000817f2952e482b8e2b192305f87374d7af45dc2eafafe4f50d26a0c02e90f2fdbe14b60001b86604001518760600151876020015160000151601460008c73ffffffffffffffffffffffffffffffffffffffff1673ffffffffffffffffffffffffffffffffffffffff1681526020019081526020016000206000815480929190600101919050558860000151604051602001611f6a96959493929190615eb5565b60405160208183030381529060405280519060200120604051602001611f91929190615cf4565b604051602081830303815290604052805190602001209050600060018285602001518660400151876060015160405160008152602001604052604051611fda9493929190615f16565b6020604051602081039080840390855afa158015611ffc573d6000803e3d6000fd5b505050602060405103519050600073ffffffffffffffffffffffffffffffffffffffff168173ffffffffffffffffffffffffffffffffffffffff161415801561207057508073ffffffffffffffffffffffffffffffffffffffff168773ffffffffffffffffffffffffffffffffffffffff16145b6120af576040517f08c379a00000000000000000000000000000000000000000000000000000000081526004016120a69061637d565b60405180910390fd5b6120ba818787612d7c565b5050506001600a8190555050505050565b606060078054600181600116156101000203166002900480601f0160208091040260200160405190810160405280929190818152602001828054600181600116156101000203166002900480156121635780601f1061213857610100808354040283529160200191612163565b820191906000526020600020905b81548152906001019060200180831161214657829003601f168201915b5050505050905090565b600c6020528060005260406000206000915054906101000a900473ffffffffffffffffffffffffffffffffffffffff1681565b600b60009054906101000a900473ffffffffffffffffffffffffffffffffffffffff1681565b6121ce612b85565b73ffffffffffffffffffffffffffffffffffffffff168273ffffffffffffffffffffffffffffffffffffffff16141561223c576040517f08c379a00000000000000000000000000000000000000000000000000000000081526004016122339061607d565b60405180910390fd5b8060056000612249612b85565b73ffffffffffffffffffffffffffffffffffffffff1673ffffffffffffffffffffffffffffffffffffffff16815260200190815260200160002060008473ffffffffffffffffffffffffffffffffffffffff1673ffffffffffffffffffffffffffffffffffffffff16815260200190815260200160002060006101000a81548160ff0219169083151502179055508173ffffffffffffffffffffffffffffffffffffffff166122f6612b85565b73ffffffffffffffffffffffffffffffffffffffff167f17307eab39ab6107e8899845ad3d59bd9653f200f220920489ca2b5937696c318360405161233b9190615dd9565b60405180910390a35050565b6002600a54141561238d576040517f08c379a0000000000000000000000000000000000000000000000000000000008152600401612384906163bd565b60405180910390fd5b6002600a8190555061239e81610b2c565b73ffffffffffffffffffffffffffffffffffffffff163373ffffffffffffffffffffffffffffffffffffffff161461240b576040517f08c379a00000000000000000000000000000000000000000000000000000000081526004016124029061603d565b60405180910390fd5b612416600082612b8d565b6001600a8190555050565b6002600a541415612467576040517f08c379a000000000000000000000000000000000000000000000000000000000815260040161245e906163bd565b60405180910390fd5b6002600a81905550808061247b6015613126565b116124bb576040517f08c379a00000000000000000000000000000000000000000000000000000000081526004016124b290615f9d565b60405180910390fd5b600b60009054906101000a900473ffffffffffffffffffffffffffffffffffffffff1673ffffffffffffffffffffffffffffffffffffffff1663776a083583336040518363ffffffff1660e01b8152600401612518929190616418565b600060405180830381600087803b15801561253257600080fd5b505af1158015612546573d6000803e3d6000fd5b50505050506001600a8190555050565b6002600a54141561259c576040517f08c379a0000000000000000000000000000000000000000000000000000000008152600401612593906163bd565b60405180910390fd5b6002600a8190555033826125b08282613149565b6125ef576040517f08c379a00000000000000000000000000000000000000000000000000000000081526004016125e69061627d565b60405180910390fd5b600b60009054906101000a900473ffffffffffffffffffffffffffffffffffffffff1673ffffffffffffffffffffffffffffffffffffffff1663b501806e85856040518363ffffffff1660e01b815260040161264c92919061646a565b600060405180830381600087803b15801561266657600080fd5b505af115801561267a573d6000803e3d6000fd5b5050505050506001600a819055505050565b61269d612697612b85565b83613149565b6126dc576040517f08c379a00000000000000000000000000000000000000000000000000000000081526004016126d39061633d565b60405180910390fd5b6126e884848484613550565b50505050565b606081806126fc6015613126565b1161273c576040517f08c379a000000000000000000000000000000000000000000000000000000000815260040161273390615f9d565b60405180910390fd5b6060600860008581526020019081526020016000208054600181600116156101000203166002900480601f0160208091040260200160405190810160405280929190818152602001828054600181600116156101000203166002900480156127e55780601f106127ba576101008083540402835291602001916127e5565b820191906000526020600020905b8154815290600101906020018083116127c857829003601f168201915b505050505090508092505050919050565b7f2952e482b8e2b192305f87374d7af45dc2eafafe4f50d26a0c02e90f2fdbe14b60001b81565b600d6020528060005260406000206000915054906101000a900473ffffffffffffffffffffffffffffffffffffffff1681565b6002600a541415612896576040517f08c379a000000000000000000000000000000000000000000000000000000000815260040161288d906163bd565b60405180910390fd5b6002600a8190555033826128aa8282613149565b6128e9576040517f08c379a00000000000000000000000000000000000000000000000000000000081526004016128e09061627d565b60405180910390fd5b600b60009054906101000a900473ffffffffffffffffffffffffffffffffffffffff1673ffffffffffffffffffffffffffffffffffffffff1663e49f876885856040518363ffffffff1660e01b81526004016129469291906164ca565b600060405180830381600087803b15801561296057600080fd5b505af1158015612974573d6000803e3d6000fd5b5050505050506001600a819055505050565b6000600560008473ffffffffffffffffffffffffffffffffffffffff1673ffffffffffffffffffffffffffffffffffffffff16815260200190815260200160002060008373ffffffffffffffffffffffffffffffffffffffff1673ffffffffffffffffffffffffffffffffffffffff16815260200190815260200160002060009054906101000a900460ff16905092915050565b600b60009054906101000a900473ffffffffffffffffffffffffffffffffffffffff1673ffffffffffffffffffffffffffffffffffffffff163373ffffffffffffffffffffffffffffffffffffffff1614612aaa576040517f08c379a0000000000000000000000000000000000000000000000000000000008152600401612aa1906161bd565b60405180910390fd5b612ab382611869565b600c600084815260200190815260200160002060006101000a81548173ffffffffffffffffffffffffffffffffffffffff021916908373ffffffffffffffffffffffffffffffffffffffff160217905550612b27612b1083611869565b828460405180602001604052806000815250613550565b5050565b6013602052816000526040600020602052806000526040600020600091509150505481565b600f6020528060005260406000206000915090505481565b6000612b7e8260026135ac90919063ffffffff16565b9050919050565b600033905090565b816004600083815260200190815260200160002060006101000a81548173ffffffffffffffffffffffffffffffffffffffff021916908373ffffffffffffffffffffffffffffffffffffffff160217905550808273ffffffffffffffffffffffffffffffffffffffff16612c0083611869565b73ffffffffffffffffffffffffffffffffffffffff167f8c5be1e5ebec7d5bd14f71427d1e84f3dd0314c0f7b2291e5b200ac8c7c3b92560405160405180910390a45050565b600080469050604051612c5890615d2b565b60405180910390206040518060400160405280600381526020017f58595a0000000000000000000000000000000000000000000000000000000000815250805190602001206040518060400160405280600181526020017f3100000000000000000000000000000000000000000000000000000000000000815250805190602001208330604051602001612cf0959493929190615e62565b6040516020818303038152906040528051906020012091505090565b600080831415612d1f5760009050612d76565b6000828402905082848281612d3057fe5b0414612d71576040517f08c379a0000000000000000000000000000000000000000000000000000000008152600401612d689061621d565b60405180910390fd5b809150505b92915050565b8160000151600081511415612dc6576040517f08c379a0000000000000000000000000000000000000000000000000000000008152600401612dbd906163dd565b60405180910390fd5b8260200151600081511415612e10576040517f08c379a0000000000000000000000000000000000000000000000000000000008152600401612e07906163dd565b60405180910390fd5b6000801b84604001511415612e5a576040517f08c379a0000000000000000000000000000000000000000000000000000000008152600401612e51906160bd565b60405180910390fd5b60001515601260008660400151815260200190815260200160002060009054906101000a900460ff16151514612ec5576040517f08c379a0000000000000000000000000000000000000000000000000000000008152600401612ebc9061617d565b60405180910390fd5b6000801b84606001511415612f0f576040517f08c379a0000000000000000000000000000000000000000000000000000000008152600401612f06906162dd565b60405180910390fd5b6000612f1b6015613126565b9050612f2786826135c6565b612f3160156135e4565b612f3f8186604001516135fa565b612f4d818660600151613660565b612f5b8186602001516134da565b612f69818660000151613227565b612fba81600e60008973ffffffffffffffffffffffffffffffffffffffff1673ffffffffffffffffffffffffffffffffffffffff1681526020019081526020016000206136c690919063ffffffff16565b506001601260008760400151815260200190815260200160002060006101000a81548160ff02191690831515021790555085600d600083815260200190815260200160002060006101000a81548173ffffffffffffffffffffffffffffffffffffffff021916908373ffffffffffffffffffffffffffffffffffffffff16021790555085600c600083815260200190815260200160002060006101000a81548173ffffffffffffffffffffffffffffffffffffffff021916908373ffffffffffffffffffffffffffffffffffffffff160217905550600b60009054906101000a900473ffffffffffffffffffffffffffffffffffffffff1673ffffffffffffffffffffffffffffffffffffffff1663eb55683a82866040518363ffffffff1660e01b81526004016130ec929190616441565b600060405180830381600087803b15801561310657600080fd5b505af115801561311a573d6000803e3d6000fd5b50505050505050505050565b600081600001549050919050565b6000613142826000016136e0565b9050919050565b600061315482612b68565b613193576040517f08c379a000000000000000000000000000000000000000000000000000000000815260040161318a906160dd565b60405180910390fd5b600061319e83611869565b90508073ffffffffffffffffffffffffffffffffffffffff168473ffffffffffffffffffffffffffffffffffffffff16148061320d57508373ffffffffffffffffffffffffffffffffffffffff166131f584610b2c565b73ffffffffffffffffffffffffffffffffffffffff16145b8061321e575061321d8185612986565b5b91505092915050565b61323082612b68565b61326f576040517f08c379a00000000000000000000000000000000000000000000000000000000081526004016132669061625d565b60405180910390fd5b806008600084815260200190815260200160002090805190602001906132969291906144a3565b505050565b600b60009054906101000a900473ffffffffffffffffffffffffffffffffffffffff1673ffffffffffffffffffffffffffffffffffffffff166328220f35826040518263ffffffff1660e01b81526004016132f691906163fd565b600060405180830381600087803b15801561331057600080fd5b505af1158015613324573d6000803e3d6000fd5b505050506133338383836136f1565b505050565b60006133478360000183613908565b60001c905092915050565b6060600860008381526020019081526020016000208054600181600116156101000203166002900480601f0160208091040260200160405190810160405280929190818152602001828054600181600116156101000203166002900480156133fb5780601f106133d0576101008083540402835291602001916133fb565b820191906000526020600020905b8154815290600101906020018083116133de57829003601f168201915b5050505050905061340b82613975565b600081511461343d578060086000848152602001908152602001600020908051906020019061343b9291906144a3565b505b600c600083815260200190815260200160002060006101000a81549073ffffffffffffffffffffffffffffffffffffffff02191690555050565b60008060008061348a8660000186613aaf565b915091508160001c8160001c8090509350935050509250929050565b60006134b9846000018460001b84613b32565b60001c90509392505050565b60006134d382600001613bc3565b9050919050565b816134e481612b68565b613523576040517f08c379a000000000000000000000000000000000000000000000000000000000815260040161351a9061639d565b60405180910390fd5b8160116000858152602001908152602001600020908051906020019061354a9291906144a3565b50505050565b61355b84848461329b565b61356784848484613bd4565b6135a6576040517f08c379a000000000000000000000000000000000000000000000000000000000815260040161359d90615fbd565b60405180910390fd5b50505050565b60006135be836000018360001b613d38565b905092915050565b6135e0828260405180602001604052806000815250613d5b565b5050565b6001816000016000828254019250508190555050565b8161360481612b68565b613643576040517f08c379a000000000000000000000000000000000000000000000000000000000815260040161363a9061639d565b60405180910390fd5b81600f600085815260200190815260200160002081905550505050565b8161366a81612b68565b6136a9576040517f08c379a00000000000000000000000000000000000000000000000000000000081526004016136a09061639d565b60405180910390fd5b816010600085815260200190815260200160002081905550505050565b60006136d8836000018360001b613db6565b905092915050565b600081600001805490509050919050565b8273ffffffffffffffffffffffffffffffffffffffff1661371182611869565b73ffffffffffffffffffffffffffffffffffffffff1614613767576040517f08c379a000000000000000000000000000000000000000000000000000000000815260040161375e9061629d565b60405180910390fd5b600073ffffffffffffffffffffffffffffffffffffffff168273ffffffffffffffffffffffffffffffffffffffff1614156137d7576040517f08c379a00000000000000000000000000000000000000000000000000000000081526004016137ce9061605d565b60405180910390fd5b6137e2838383613e26565b6137ed600082612b8d565b61383e81600160008673ffffffffffffffffffffffffffffffffffffffff1673ffffffffffffffffffffffffffffffffffffffff168152602001908152602001600020613e2b90919063ffffffff16565b5061389081600160008573ffffffffffffffffffffffffffffffffffffffff1673ffffffffffffffffffffffffffffffffffffffff1681526020019081526020016000206136c690919063ffffffff16565b506138a781836002613e459092919063ffffffff16565b50808273ffffffffffffffffffffffffffffffffffffffff168473ffffffffffffffffffffffffffffffffffffffff167fddf252ad1be2c89b69c2b068fc378daa952ba7f163c4a11628f55a4df523b3ef60405160405180910390a4505050565b600081836000018054905011613953576040517f08c379a000000000000000000000000000000000000000000000000000000000815260040161394a90615f7d565b60405180910390fd5b82600001828154811061396257fe5b9060005260206000200154905092915050565b600061398082611869565b905061398e81600084613e26565b613999600083612b8d565b600060086000848152602001908152602001600020805460018160011615610100020316600290049050146139e8576008600083815260200190815260200160002060006139e79190614523565b5b613a3982600160008473ffffffffffffffffffffffffffffffffffffffff1673ffffffffffffffffffffffffffffffffffffffff168152602001908152602001600020613e2b90919063ffffffff16565b50613a4e826002613e7a90919063ffffffff16565b5081600073ffffffffffffffffffffffffffffffffffffffff168273ffffffffffffffffffffffffffffffffffffffff167fddf252ad1be2c89b69c2b068fc378daa952ba7f163c4a11628f55a4df523b3ef60405160405180910390a45050565b60008082846000018054905011613afb576040517f08c379a0000000000000000000000000000000000000000000000000000000008152600401613af29061619d565b60405180910390fd5b6000846000018481548110613b0c57fe5b906000526020600020906002020190508060000154816001015492509250509250929050565b60008084600101600085815260200190815260200160002054905060008114158390613b94576040517f08c379a0000000000000000000000000000000000000000000000000000000008152600401613b8b9190615f5b565b60405180910390fd5b50846000016001820381548110613ba757fe5b9060005260206000209060020201600101549150509392505050565b600081600001805490509050919050565b6000613bf58473ffffffffffffffffffffffffffffffffffffffff16613e94565b613c025760019050613d30565b6060613cc963150b7a0260e01b613c17612b85565b888787604051602401613c2d9493929190615d5b565b604051602081830303815290604052907bffffffffffffffffffffffffffffffffffffffffffffffffffffffff19166020820180517bffffffffffffffffffffffffffffffffffffffffffffffffffffffff8381831617835250505050604051806060016040528060328152602001616781603291398773ffffffffffffffffffffffffffffffffffffffff16613ea79092919063ffffffff16565b9050600081806020019051810190613ce19190614be7565b905063150b7a0260e01b7bffffffffffffffffffffffffffffffffffffffffffffffffffffffff1916817bffffffffffffffffffffffffffffffffffffffffffffffffffffffff191614925050505b949350505050565b600080836001016000848152602001908152602001600020541415905092915050565b613d658383613ebf565b613d726000848484613bd4565b613db1576040517f08c379a0000000000000000000000000000000000000000000000000000000008152600401613da890615fbd565b60405180910390fd5b505050565b6000613dc2838361404d565b613e1b578260000182908060018154018082558091505060019003906000526020600020016000909190919091505582600001805490508360010160008481526020019081526020016000208190555060019050613e20565b600090505b92915050565b505050565b6000613e3d836000018360001b614070565b905092915050565b6000613e71846000018460001b8473ffffffffffffffffffffffffffffffffffffffff1660001b614158565b90509392505050565b6000613e8c836000018360001b614234565b905092915050565b600080823b905060008111915050919050565b6060613eb6848460008561434d565b90509392505050565b600073ffffffffffffffffffffffffffffffffffffffff168273ffffffffffffffffffffffffffffffffffffffff161415613f2f576040517f08c379a0000000000000000000000000000000000000000000000000000000008152600401613f26906161dd565b60405180910390fd5b613f3881612b68565b15613f78576040517f08c379a0000000000000000000000000000000000000000000000000000000008152600401613f6f90615ffd565b60405180910390fd5b613f8460008383613e26565b613fd581600160008573ffffffffffffffffffffffffffffffffffffffff1673ffffffffffffffffffffffffffffffffffffffff1681526020019081526020016000206136c690919063ffffffff16565b50613fec81836002613e459092919063ffffffff16565b50808273ffffffffffffffffffffffffffffffffffffffff16600073ffffffffffffffffffffffffffffffffffffffff167fddf252ad1be2c89b69c2b068fc378daa952ba7f163c4a11628f55a4df523b3ef60405160405180910390a45050565b600080836001016000848152602001908152602001600020541415905092915050565b6000808360010160008481526020019081526020016000205490506000811461414c57600060018203905060006001866000018054905003905060008660000182815481106140bb57fe5b90600052602060002001549050808760000184815481106140d857fe5b906000526020600020018190555060018301876001016000838152602001908152602001600020819055508660000180548061411057fe5b60019003818190600052602060002001600090559055866001016000878152602001908152602001600020600090556001945050505050614152565b60009150505b92915050565b60008084600101600085815260200190815260200160002054905060008114156141ff5784600001604051806040016040528086815260200185815250908060018154018082558091505060019003906000526020600020906002020160009091909190915060008201518160000155602082015181600101555050846000018054905085600101600086815260200190815260200160002081905550600191505061422d565b8285600001600183038154811061421257fe5b90600052602060002090600202016001018190555060009150505b9392505050565b60008083600101600084815260200190815260200160002054905060008114614341576000600182039050600060018660000180549050039050600086600001828154811061427f57fe5b906000526020600020906002020190508087600001848154811061429f57fe5b90600052602060002090600202016000820154816000015560018201548160010155905050600183018760010160008360000154815260200190815260200160002081905550866000018054806142f257fe5b6001900381819060005260206000209060020201600080820160009055600182016000905550509055866001016000878152602001908152602001600020600090556001945050505050614347565b60009150505b92915050565b606061435885613e94565b614397576040517f08c379a000000000000000000000000000000000000000000000000000000000815260040161438e9061635d565b60405180910390fd5b600060608673ffffffffffffffffffffffffffffffffffffffff1685876040516143c19190615cdd565b60006040518083038185875af1925050503d80600081146143fe576040519150601f19603f3d011682016040523d82523d6000602084013e614403565b606091505b50915091508115614418578092505050614468565b60008151111561442b5780518082602001fd5b836040517f08c379a000000000000000000000000000000000000000000000000000000000815260040161445f9190615f5b565b60405180910390fd5b949350505050565b604051806060016040528061448361456b565b815260200161449061456b565b815260200161449d61456b565b81525090565b828054600181600116156101000203166002900490600052602060002090601f016020900481019282601f106144e457805160ff1916838001178555614512565b82800160010185558215614512579182015b828111156145115782518255916020019190600101906144f6565b5b50905061451f919061457e565b5090565b50805460018160011615610100020316600290046000825580601f106145495750614568565b601f016020900490600052602060002090810190614567919061457e565b5b50565b6040518060200160405280600081525090565b6145a091905b8082111561459c576000816000905550600101614584565b5090565b90565b6000813590506145b2816166f6565b92915050565b6000813590506145c78161670d565b92915050565b6000813590506145dc81616724565b92915050565b6000813590506145f18161673b565b92915050565b6000815190506146068161673b565b92915050565b600082601f83011261461d57600080fd5b813561463061462b82616520565b6164f3565b9150808252602083016020830185838301111561464c57600080fd5b614657838284616699565b50505092915050565b60008083601f84011261467257600080fd5b8235905067ffffffffffffffff81111561468b57600080fd5b6020830191508360018202830111156146a357600080fd5b9250929050565b600082601f8301126146bb57600080fd5b81356146ce6146c98261654c565b6164f3565b915080825260208301602083018583830111156146ea57600080fd5b6146f5838284616699565b50505092915050565b60006060828403121561471057600080fd5b61471a60606164f3565b9050600061472a848285016147d2565b600083015250602061473e848285016147d2565b6020830152506040614752848285016147d2565b60408301525092915050565b60006080828403121561477057600080fd5b61477a60806164f3565b9050600061478a84828501614922565b600083015250602061479e848285016145a3565b60208301525060406147b2848285016145a3565b60408301525060606147c6848285016147d2565b60608301525092915050565b6000602082840312156147e457600080fd5b6147ee60206164f3565b905060006147fe84828501614922565b60008301525092915050565b60006080828403121561481c57600080fd5b61482660806164f3565b9050600061483684828501614922565b600083015250602061484a84828501614937565b602083015250604061485e848285016145cd565b6040830152506060614872848285016145cd565b60608301525092915050565b60006080828403121561489057600080fd5b61489a60806164f3565b9050600082013567ffffffffffffffff8111156148b657600080fd5b6148c2848285016146aa565b600083015250602082013567ffffffffffffffff8111156148e257600080fd5b6148ee848285016146aa565b6020830152506040614902848285016145cd565b6040830152506060614916848285016145cd565b60608301525092915050565b60008135905061493181616752565b92915050565b60008135905061494681616769565b92915050565b60006020828403121561495e57600080fd5b600061496c848285016145a3565b91505092915050565b6000806040838503121561498857600080fd5b6000614996858286016145a3565b92505060206149a7858286016145a3565b9150509250929050565b6000806000606084860312156149c657600080fd5b60006149d4868287016145a3565b93505060206149e5868287016145a3565b92505060406149f686828701614922565b9150509250925092565b60008060008060808587031215614a1657600080fd5b6000614a24878288016145a3565b9450506020614a35878288016145a3565b9350506040614a4687828801614922565b925050606085013567ffffffffffffffff811115614a6357600080fd5b614a6f8782880161460c565b91505092959194509250565b60008060408385031215614a8e57600080fd5b6000614a9c858286016145a3565b9250506020614aad858286016145b8565b9150509250929050565b6000806000806101208587031215614ace57600080fd5b6000614adc878288016145a3565b945050602085013567ffffffffffffffff811115614af957600080fd5b614b058782880161487e565b9350506040614b16878288016146fe565b92505060a0614b278782880161480a565b91505092959194509250565b60008060408385031215614b4657600080fd5b6000614b54858286016145a3565b9250506020614b6585828601614922565b9150509250929050565b600080600060c08486031215614b8457600080fd5b6000614b92868287016145a3565b9350506020614ba386828701614922565b9250506040614bb48682870161480a565b9150509250925092565b600060208284031215614bd057600080fd5b6000614bde848285016145e2565b91505092915050565b600060208284031215614bf957600080fd5b6000614c07848285016145f7565b91505092915050565b600060208284031215614c2257600080fd5b600082013567ffffffffffffffff811115614c3c57600080fd5b614c488482850161487e565b91505092915050565b600060208284031215614c6357600080fd5b6000614c7184828501614922565b91505092915050565b60008060408385031215614c8d57600080fd5b6000614c9b85828601614922565b9250506020614cac858286016145a3565b9150509250929050565b600080600060408486031215614ccb57600080fd5b6000614cd986828701614922565b935050602084013567ffffffffffffffff811115614cf657600080fd5b614d0286828701614660565b92509250509250925092565b60008060a08385031215614d2157600080fd5b6000614d2f85828601614922565b9250506020614d408582860161475e565b9150509250929050565b60008060408385031215614d5d57600080fd5b6000614d6b85828601614922565b9250506020614d7c85828601614922565b9150509250929050565b614d8f81616663565b82525050565b614d9e816165d8565b82525050565b614dad816165c6565b82525050565b614dbc816165c6565b82525050565b614dcb816165ea565b82525050565b614dda816165f6565b82525050565b614df1614dec826165f6565b6166db565b82525050565b6000614e0282616578565b614e0c818561658e565b9350614e1c8185602086016166a8565b614e25816166e5565b840191505092915050565b6000614e3b82616578565b614e45818561659f565b9350614e558185602086016166a8565b80840191505092915050565b6000614e6d83856165aa565b9350614e7a838584616699565b614e83836166e5565b840190509392505050565b6000614e9982616583565b614ea381856165aa565b9350614eb38185602086016166a8565b614ebc816166e5565b840191505092915050565b6000614ed46022836165aa565b91507f456e756d657261626c655365743a20696e646578206f7574206f6620626f756e60008301527f64730000000000000000000000000000000000000000000000000000000000006020830152604082019050919050565b6000614f3a6028836165aa565b91507f4d656469613a20746f6b656e2077697468207468617420696420646f6573206e60008301527f6f742065786973740000000000000000000000000000000000000000000000006020830152604082019050919050565b6000614fa06032836165aa565b91507f4552433732313a207472616e7366657220746f206e6f6e20455243373231526560008301527f63656976657220696d706c656d656e74657200000000000000000000000000006020830152604082019050919050565b6000615006601c836165aa565b91507f4d656469613a207370656e6465722063616e6e6f7420626520307830000000006000830152602082019050919050565b6000615046601c836165aa565b91507f4552433732313a20746f6b656e20616c7265616479206d696e746564000000006000830152602082019050919050565b60006150866021836165aa565b91507f4d61726b65743a20426964646572206d757374206265206d73672073656e646560008301527f72000000000000000000000000000000000000000000000000000000000000006020830152604082019050919050565b60006150ec6002836165bb565b91507f19010000000000000000000000000000000000000000000000000000000000006000830152600282019050919050565b600061512c6022836165aa565b91507f4d656469613a2063616c6c6572206e6f7420617070726f76656420616464726560008301527f73730000000000000000000000000000000000000000000000000000000000006020830152604082019050919050565b60006151926024836165aa565b91507f4552433732313a207472616e7366657220746f20746865207a65726f2061646460008301527f72657373000000000000000000000000000000000000000000000000000000006020830152604082019050919050565b60006151f86019836165aa565b91507f4552433732313a20617070726f766520746f2063616c6c6572000000000000006000830152602082019050919050565b6000615238602f836165aa565b91507f4d656469613a20746f6b656e20646f6573206e6f74206861766520686173682060008301527f6f6620697473206d6574616461746100000000000000000000000000000000006020830152604082019050919050565b600061529e6024836165aa565b91507f4d656469613a20636f6e74656e742068617368206d757374206265206e6f6e2d60008301527f7a65726f000000000000000000000000000000000000000000000000000000006020830152604082019050919050565b6000615304602c836165aa565b91507f4552433732313a206f70657261746f7220717565727920666f72206e6f6e657860008301527f697374656e7420746f6b656e00000000000000000000000000000000000000006020830152604082019050919050565b600061536a601a836165aa565b91507f76616c7565206d75737420657175616c20746f20616d6f756e740000000000006000830152602082019050919050565b60006153aa6038836165aa565b91507f4552433732313a20617070726f76652063616c6c6572206973206e6f74206f7760008301527f6e6572206e6f7220617070726f76656420666f7220616c6c00000000000000006020830152604082019050919050565b6000615410602a836165aa565b91507f4552433732313a2062616c616e636520717565727920666f7220746865207a6560008301527f726f2061646472657373000000000000000000000000000000000000000000006020830152604082019050919050565b60006154766015836165aa565b91507f4d656469613a205065726d6974206578706972656400000000000000000000006000830152602082019050919050565b60006154b6603e836165aa565b91507f4d656469613a206120746f6b656e2068617320616c7265616479206265656e2060008301527f637265617465642077697468207468697320636f6e74656e74206861736800006020830152604082019050919050565b600061551c6022836165aa565b91507f456e756d657261626c654d61703a20696e646578206f7574206f6620626f756e60008301527f64730000000000000000000000000000000000000000000000000000000000006020830152604082019050919050565b6000615582601b836165aa565b91507f4d656469613a206f6e6c79206d61726b657420636f6e747261637400000000006000830152602082019050919050565b60006155c26020836165aa565b91507f4552433732313a206d696e7420746f20746865207a65726f20616464726573736000830152602082019050919050565b60006156026052836165bb565b91507f454950373132446f6d61696e28737472696e67206e616d652c737472696e672060008301527f76657273696f6e2c75696e7432353620636861696e49642c616464726573732060208301527f766572696679696e67436f6e74726163742900000000000000000000000000006040830152605282019050919050565b600061568e6024836165aa565b91507f4d656469613a206f776e6572206973206e6f742063726561746f72206f66206d60008301527f65646961000000000000000000000000000000000000000000000000000000006020830152604082019050919050565b60006156f46021836165aa565b91507f536166654d6174683a206d756c7469706c69636174696f6e206f766572666c6f60008301527f77000000000000000000000000000000000000000000000000000000000000006020830152604082019050919050565b600061575a602c836165aa565b91507f4552433732313a20617070726f76656420717565727920666f72206e6f6e657860008301527f697374656e7420746f6b656e00000000000000000000000000000000000000006020830152604082019050919050565b60006157c0602c836165aa565b91507f4552433732314d657461646174613a2055524920736574206f66206e6f6e657860008301527f697374656e7420746f6b656e00000000000000000000000000000000000000006020830152604082019050919050565b6000615826601d836165aa565b91507f4d656469613a204f6e6c7920617070726f766564206f72206f776e65720000006000830152602082019050919050565b60006158666029836165aa565b91507f4552433732313a207472616e73666572206f6620746f6b656e2074686174206960008301527f73206e6f74206f776e00000000000000000000000000000000000000000000006020830152604082019050919050565b60006158cc6032836165aa565b91507f4d656469613a20746f6b656e20646f6573206e6f74206861766520686173682060008301527f6f66206372656174656420636f6e74656e7400000000000000000000000000006020830152604082019050919050565b60006159326025836165aa565b91507f4d656469613a206d657461646174612068617368206d757374206265206e6f6e60008301527f2d7a65726f0000000000000000000000000000000000000000000000000000006020830152604082019050919050565b60006159986021836165aa565b91507f4552433732313a20617070726f76616c20746f2063757272656e74206f776e6560008301527f72000000000000000000000000000000000000000000000000000000000000006020830152604082019050919050565b60006159fe601a836165aa565b91507f4d656469613a206d696e745769746853696720657870697265640000000000006000830152602082019050919050565b6000615a3e6031836165aa565b91507f4552433732313a207472616e736665722063616c6c6572206973206e6f74206f60008301527f776e6572206e6f7220617070726f7665640000000000000000000000000000006020830152604082019050919050565b6000615aa4601d836165aa565b91507f416464726573733a2063616c6c20746f206e6f6e2d636f6e74726163740000006000830152602082019050919050565b6000615ae46018836165aa565b91507f4d656469613a205369676e617475726520696e76616c696400000000000000006000830152602082019050919050565b6000615b246018836165aa565b91507f4d656469613a206e6f6e6578697374656e7420746f6b656e00000000000000006000830152602082019050919050565b6000615b64601f836165aa565b91507f5265656e7472616e637947756172643a207265656e7472616e742063616c6c006000830152602082019050919050565b6000615ba46026836165aa565b91507f4d656469613a2073706563696669656420757269206d757374206265206e6f6e60008301527f2d656d70747900000000000000000000000000000000000000000000000000006020830152604082019050919050565b606082016000820151615c136000850182615c94565b506020820151615c266020850182615c94565b506040820151615c396040850182615c94565b50505050565b608082016000820151615c556000850182615cb0565b506020820151615c686020850182614da4565b506040820151615c7b6040850182614da4565b506060820151615c8e6060850182615c94565b50505050565b602082016000820151615caa6000850182615cb0565b50505050565b615cb98161664c565b82525050565b615cc88161664c565b82525050565b615cd781616656565b82525050565b6000615ce98284614e30565b915081905092915050565b6000615cff826150df565b9150615d0b8285614de0565b602082019150615d1b8284614de0565b6020820191508190509392505050565b6000615d36826155f5565b9150819050919050565b6000602082019050615d556000830184614db3565b92915050565b6000608082019050615d706000830187614d95565b615d7d6020830186614db3565b615d8a6040830185615cbf565b8181036060830152615d9c8184614df7565b905095945050505050565b6000604082019050615dbc6000830186614d86565b8181036020830152615dcf818486614e61565b9050949350505050565b6000602082019050615dee6000830184614dc2565b92915050565b6000602082019050615e096000830184614dd1565b92915050565b600060a082019050615e246000830188614dd1565b615e316020830187614db3565b615e3e6040830186615cbf565b615e4b6060830185615cbf565b615e586080830184615cbf565b9695505050505050565b600060a082019050615e776000830188614dd1565b615e846020830187614dd1565b615e916040830186614dd1565b615e9e6060830185615cbf565b615eab6080830184614db3565b9695505050505050565b600060c082019050615eca6000830189614dd1565b615ed76020830188614dd1565b615ee46040830187614dd1565b615ef16060830186615cbf565b615efe6080830185615cbf565b615f0b60a0830184615cbf565b979650505050505050565b6000608082019050615f2b6000830187614dd1565b615f386020830186615cce565b615f456040830185614dd1565b615f526060830184614dd1565b95945050505050565b60006020820190508181036000830152615f758184614e8e565b905092915050565b60006020820190508181036000830152615f9681614ec7565b9050919050565b60006020820190508181036000830152615fb681614f2d565b9050919050565b60006020820190508181036000830152615fd681614f93565b9050919050565b60006020820190508181036000830152615ff681614ff9565b9050919050565b6000602082019050818103600083015261601681615039565b9050919050565b6000602082019050818103600083015261603681615079565b9050919050565b600060208201905081810360008301526160568161511f565b9050919050565b6000602082019050818103600083015261607681615185565b9050919050565b60006020820190508181036000830152616096816151eb565b9050919050565b600060208201905081810360008301526160b68161522b565b9050919050565b600060208201905081810360008301526160d681615291565b9050919050565b600060208201905081810360008301526160f6816152f7565b9050919050565b600060208201905081810360008301526161168161535d565b9050919050565b600060208201905081810360008301526161368161539d565b9050919050565b6000602082019050818103600083015261615681615403565b9050919050565b6000602082019050818103600083015261617681615469565b9050919050565b60006020820190508181036000830152616196816154a9565b9050919050565b600060208201905081810360008301526161b68161550f565b9050919050565b600060208201905081810360008301526161d681615575565b9050919050565b600060208201905081810360008301526161f6816155b5565b9050919050565b6000602082019050818103600083015261621681615681565b9050919050565b60006020820190508181036000830152616236816156e7565b9050919050565b600060208201905081810360008301526162568161574d565b9050919050565b60006020820190508181036000830152616276816157b3565b9050919050565b6000602082019050818103600083015261629681615819565b9050919050565b600060208201905081810360008301526162b681615859565b9050919050565b600060208201905081810360008301526162d6816158bf565b9050919050565b600060208201905081810360008301526162f681615925565b9050919050565b600060208201905081810360008301526163168161598b565b9050919050565b60006020820190508181036000830152616336816159f1565b9050919050565b6000602082019050818103600083015261635681615a31565b9050919050565b6000602082019050818103600083015261637681615a97565b9050919050565b6000602082019050818103600083015261639681615ad7565b9050919050565b600060208201905081810360008301526163b681615b17565b9050919050565b600060208201905081810360008301526163d681615b57565b9050919050565b600060208201905081810360008301526163f681615b97565b9050919050565b60006020820190506164126000830184615cbf565b92915050565b600060408201905061642d6000830185615cbf565b61643a6020830184614d86565b9392505050565b60006080820190506164566000830185615cbf565b6164636020830184615bfd565b9392505050565b600060a08201905061647f6000830185615cbf565b61648c6020830184615c3f565b9392505050565b600060c0820190506164a86000830186615cbf565b6164b56020830185615c3f565b6164c260a0830184614d86565b949350505050565b60006040820190506164df6000830185615cbf565b6164ec6020830184615cbf565b9392505050565b6000604051905081810181811067ffffffffffffffff8211171561651657600080fd5b8060405250919050565b600067ffffffffffffffff82111561653757600080fd5b601f19601f8301169050602081019050919050565b600067ffffffffffffffff82111561656357600080fd5b601f19601f8301169050602081019050919050565b600081519050919050565b600081519050919050565b600082825260208201905092915050565b600081905092915050565b600082825260208201905092915050565b600081905092915050565b60006165d18261662c565b9050919050565b60006165e38261662c565b9050919050565b60008115159050919050565b6000819050919050565b60007fffffffff0000000000000000000000000000000000000000000000000000000082169050919050565b600073ffffffffffffffffffffffffffffffffffffffff82169050919050565b6000819050919050565b600060ff82169050919050565b600061666e82616675565b9050919050565b600061668082616687565b9050919050565b60006166928261662c565b9050919050565b82818337600083830152505050565b60005b838110156166c65780820151818401526020810190506166ab565b838111156166d5576000848401525b50505050565b6000819050919050565b6000601f19601f8301169050919050565b6166ff816165c6565b811461670a57600080fd5b50565b616716816165ea565b811461672157600080fd5b50565b61672d816165f6565b811461673857600080fd5b50565b61674481616600565b811461674f57600080fd5b50565b61675b8161664c565b811461676657600080fd5b50565b61677281616656565b811461677d57600080fd5b5056fe4552433732313a207472616e7366657220746f206e6f6e20455243373231526563656976657220696d706c656d656e7465724552433732313a206f776e657220717565727920666f72206e6f6e6578697374656e7420746f6b656ea2646970667358221220d3914c1138005c3e8e1873eee8425ea04df4418162d38bae15be6b356ffbd47364736f6c63430006080033",
  "immutableReferences": {},
  "source": "// SPDX-License-Identifier: GPL-3.0\r\npragma solidity 0.6.8;\r\npragma experimental ABIEncoderV2;\r\n\r\nimport {ERC721Burnable} from \"./ERC721Burnable.sol\";\r\nimport {ERC721} from \"./ERC721.sol\";\r\nimport {EnumerableSet} from \"@openzeppelin/contracts/utils/EnumerableSet.sol\";\r\nimport {Counters} from \"@openzeppelin/contracts/utils/Counters.sol\";\r\nimport {SafeMath} from \"@openzeppelin/contracts/math/SafeMath.sol\";\r\nimport {Math} from \"@openzeppelin/contracts/math/Math.sol\";\r\nimport {IERC20} from \"@openzeppelin/contracts/token/ERC20/IERC20.sol\";\r\nimport {\r\n    ReentrancyGuard\r\n} from \"@openzeppelin/contracts/utils/ReentrancyGuard.sol\";\r\nimport {Decimal} from \"./Decimal.sol\";\r\nimport {IMarket} from \"./IMarket.sol\";\r\nimport \"./IMedia.sol\";\r\n\r\n/**\r\n * @title A media value system, with perpetual equity to creators\r\n * @notice This contract provides an interface to mint media with a market\r\n * owned by the creator.\r\n */\r\ncontract Media is IMedia, ERC721Burnable, ReentrancyGuard {\r\n    using Counters for Counters.Counter;\r\n    using SafeMath for uint256;\r\n\r\n    /* *******\r\n     * Globals\r\n     * *******\r\n     */\r\n\r\n    // Address for the market\r\n    address public marketContract;\r\n\r\n    // Mapping from token to previous owner of the token\r\n    mapping(uint256 => address) public previousTokenOwners;\r\n\r\n    // Mapping from token id to creator address\r\n    mapping(uint256 => address) public tokenCreators;\r\n\r\n    // Mapping from creator address to their (enumerable) set of created tokens\r\n    mapping(address => EnumerableSet.UintSet) private _creatorTokens;\r\n\r\n    // Mapping from token id to sha256 hash of content\r\n    mapping(uint256 => bytes32) public tokenContentHashes;\r\n\r\n    // Mapping from token id to sha256 hash of metadata\r\n    mapping(uint256 => bytes32) public tokenMetadataHashes;\r\n\r\n    // Mapping from token id to metadataURI\r\n    mapping(uint256 => string) private _tokenMetadataURIs;\r\n\r\n    // Mapping from contentHash to bool\r\n    mapping(bytes32 => bool) private _contentHashes;\r\n\r\n    //keccak256(\"Permit(address spender,uint256 tokenId,uint256 nonce,uint256 deadline)\");\r\n    bytes32 public constant PERMIT_TYPEHASH =\r\n        0x49ecf333e5b8c95c40fdafc95c1ad136e8914a8fb55e9dc8bb01eaa83a2df9ad;\r\n\r\n    //keccak256(\"MintWithSig(bytes32 contentHash,bytes32 metadataHash,uint256 creatorShare,uint256 nonce,uint256 deadline)\");\r\n    bytes32 public constant MINT_WITH_SIG_TYPEHASH =\r\n        0x2952e482b8e2b192305f87374d7af45dc2eafafe4f50d26a0c02e90f2fdbe14b;\r\n\r\n    // Mapping from address to token id to permit nonce\r\n    mapping(address => mapping(uint256 => uint256)) public permitNonces;\r\n\r\n    // Mapping from address to mint with sig nonce\r\n    mapping(address => uint256) public mintWithSigNonces;\r\n\r\n    /*\r\n     *     bytes4(keccak256('name()')) == 0x06fdde03\r\n     *     bytes4(keccak256('symbol()')) == 0x95d89b41\r\n     *     bytes4(keccak256('tokenURI(uint256)')) == 0xc87b56dd\r\n     *     bytes4(keccak256('tokenMetadataURI(uint256)')) == 0x157c3df9\r\n     *\r\n     *     => 0x06fdde03 ^ 0x95d89b41 ^ 0xc87b56dd ^ 0x157c3df9 == 0x4e222e66\r\n     */\r\n    bytes4 private constant _INTERFACE_ID_ERC721_METADATA = 0x4e222e66;\r\n\r\n    Counters.Counter private _tokenIdTracker;\r\n\r\n    /* *********\r\n     * Modifiers\r\n     * *********\r\n     */\r\n\r\n    /**\r\n     * @notice Require that the token has not been burned and has been minted\r\n     */\r\n    modifier onlyExistingToken(uint256 tokenId) {\r\n        require(_exists(tokenId), \"Media: nonexistent token\");\r\n        _;\r\n    }\r\n\r\n    /**\r\n     * @notice Require that the token has had a content hash set\r\n     */\r\n    modifier onlyTokenWithContentHash(uint256 tokenId) {\r\n        require(\r\n            tokenContentHashes[tokenId] != 0,\r\n            \"Media: token does not have hash of created content\"\r\n        );\r\n        _;\r\n    }\r\n\r\n    /**\r\n     * @notice Require that the token has had a metadata hash set\r\n     */\r\n    modifier onlyTokenWithMetadataHash(uint256 tokenId) {\r\n        require(\r\n            tokenMetadataHashes[tokenId] != 0,\r\n            \"Media: token does not have hash of its metadata\"\r\n        );\r\n        _;\r\n    }\r\n\r\n    /**\r\n     * @notice Ensure that the provided spender is the approved or the owner of\r\n     * the media for the specified tokenId\r\n     */\r\n    modifier onlyApprovedOrOwner(address spender, uint256 tokenId) {\r\n        require(\r\n            _isApprovedOrOwner(spender, tokenId),\r\n            \"Media: Only approved or owner\"\r\n        );\r\n        _;\r\n    }\r\n\r\n    /**\r\n     * @notice Ensure the token has been created (even if it has been burned)\r\n     */\r\n    modifier onlyTokenCreated(uint256 tokenId) {\r\n        require(\r\n            _tokenIdTracker.current() > tokenId,\r\n            \"Media: token with that id does not exist\"\r\n        );\r\n        _;\r\n    }\r\n\r\n    /**\r\n     * @notice Ensure that the provided URI is not empty\r\n     */\r\n    modifier onlyValidURI(string memory uri) {\r\n        require(\r\n            bytes(uri).length != 0,\r\n            \"Media: specified uri must be non-empty\"\r\n        );\r\n        _;\r\n    }\r\n\r\n    /**\r\n     * @notice On deployment, set the market contract address and register the\r\n     * ERC721 metadata interface\r\n     */\r\n    constructor(address marketContractAddr) public ERC721(\"XYZ\", \"XYZ\") {\r\n        marketContract = marketContractAddr;\r\n        _registerInterface(_INTERFACE_ID_ERC721_METADATA);\r\n    }\r\n\r\n    /* **************\r\n     * View Functions\r\n     * **************\r\n     */\r\n\r\n    /**\r\n     * @notice return the URI for a particular piece of media with the specified tokenId\r\n     * @dev This function is an override of the base OZ implementation because we\r\n     * will return the tokenURI even if the media has been burned. In addition, this\r\n     * protocol does not support a base URI, so relevant conditionals are removed.\r\n     * @return the URI for a token\r\n     */\r\n    function tokenURI(uint256 tokenId)\r\n        public\r\n        view\r\n        override\r\n        onlyTokenCreated(tokenId)\r\n        returns (string memory)\r\n    {\r\n        string memory _tokenURI = _tokenURIs[tokenId];\r\n\r\n        return _tokenURI;\r\n    }\r\n\r\n    /**\r\n     * @notice Return the metadata URI for a piece of media given the token URI\r\n     * @return the metadata URI for the token\r\n     */\r\n    function tokenMetadataURI(uint256 tokenId)\r\n        external\r\n        view\r\n        override\r\n        onlyTokenCreated(tokenId)\r\n        returns (string memory)\r\n    {\r\n        return _tokenMetadataURIs[tokenId];\r\n    }\r\n\r\n    /* ****************\r\n     * Public Functions\r\n     * ****************\r\n     */\r\n\r\n    /**\r\n     * @notice see IMedia\r\n     */\r\n    function mint(MediaData memory data)\r\n        public\r\n        override\r\n        nonReentrant\r\n    {\r\n        IMarket.BidShares memory bidShares = IMarket.BidShares(\r\n            {\r\n                prevOwner : Decimal.D256(0), \r\n                creator : Decimal.D256( uint256(10).mul(Decimal.BASE)), \r\n                owner : Decimal.D256(uint256(90).mul(Decimal.BASE))\r\n            }\r\n        );\r\n        \r\n        _mintForCreator(msg.sender, data, bidShares);\r\n    }\r\n\r\n    /**\r\n     * @notice see IMedia\r\n     */\r\n    function mintWithSig(\r\n        address creator,\r\n        MediaData memory data,\r\n        IMarket.BidShares memory bidShares,\r\n        EIP712Signature memory sig\r\n    ) public override nonReentrant {\r\n        require(\r\n            sig.deadline == 0 || sig.deadline >= block.timestamp,\r\n            \"Media: mintWithSig expired\"\r\n        );\r\n\r\n        bytes32 domainSeparator = _calculateDomainSeparator();\r\n\r\n        bytes32 digest =\r\n            keccak256(\r\n                abi.encodePacked(\r\n                    \"\\x19\\x01\",\r\n                    domainSeparator,\r\n                    keccak256(\r\n                        abi.encode(\r\n                            MINT_WITH_SIG_TYPEHASH,\r\n                            data.contentHash,\r\n                            data.metadataHash,\r\n                            bidShares.creator.value,\r\n                            mintWithSigNonces[creator]++,\r\n                            sig.deadline\r\n                        )\r\n                    )\r\n                )\r\n            );\r\n\r\n        address recoveredAddress = ecrecover(digest, sig.v, sig.r, sig.s);\r\n\r\n        require(\r\n            recoveredAddress != address(0) && creator == recoveredAddress,\r\n            \"Media: Signature invalid\"\r\n        );\r\n\r\n        _mintForCreator(recoveredAddress, data, bidShares);\r\n    }\r\n\r\n    /**\r\n     * @notice see IMedia\r\n     */\r\n    function auctionTransfer(uint256 tokenId, address recipient)\r\n        external\r\n        override\r\n    {\r\n        require(msg.sender == marketContract, \"Media: only market contract\");\r\n        previousTokenOwners[tokenId] = ownerOf(tokenId);\r\n        _safeTransfer(ownerOf(tokenId), recipient, tokenId, \"\");\r\n    }\r\n\r\n    /**\r\n     * @notice see IMedia\r\n     */\r\n    function setAsk(uint256 tokenId, uint256 ask)\r\n        public\r\n        override\r\n        nonReentrant\r\n        onlyApprovedOrOwner(msg.sender, tokenId)\r\n    {\r\n        IMarket(marketContract).setAsk(tokenId, ask);\r\n    }\r\n\r\n    /**\r\n     * @notice see IMedia\r\n     */\r\n    function removeAsk(uint256 tokenId)\r\n        external\r\n        override\r\n        nonReentrant\r\n        onlyApprovedOrOwner(msg.sender, tokenId)\r\n    {\r\n        IMarket(marketContract).removeAsk(tokenId);\r\n    }\r\n\r\n    /**\r\n     * @notice see IMedia\r\n     */\r\n    function setBid(uint256 tokenId, IMarket.Bid memory bid)\r\n        public\r\n        override\r\n        nonReentrant\r\n        onlyExistingToken(tokenId)\r\n        payable\r\n    {\r\n        require(msg.value == bid.amount, \"value must equal to amount\");\r\n        require(msg.sender == bid.bidder, \"Market: Bidder must be msg sender\");\r\n        IMarket(marketContract).setBid{value : msg.value } (tokenId, bid, msg.sender);\r\n    }\r\n\r\n    /**\r\n     * @notice see IMedia\r\n     */\r\n    function removeBid(uint256 tokenId)\r\n        external\r\n        override\r\n        nonReentrant\r\n        onlyTokenCreated(tokenId)\r\n    {\r\n        IMarket(marketContract).removeBid(tokenId, msg.sender);\r\n    }\r\n\r\n    /**\r\n     * @notice see IMedia\r\n     */\r\n    function acceptBid(uint256 tokenId, IMarket.Bid memory bid)\r\n        public\r\n        override\r\n        nonReentrant\r\n        onlyApprovedOrOwner(msg.sender, tokenId)\r\n    {\r\n        IMarket(marketContract).acceptBid(tokenId, bid);\r\n    }\r\n\r\n    /**\r\n     * @notice Burn a token.\r\n     * @dev Only callable if the media owner is also the creator.\r\n     */\r\n    function burn(uint256 tokenId)\r\n        public\r\n        override\r\n        nonReentrant\r\n        onlyExistingToken(tokenId)\r\n        onlyApprovedOrOwner(msg.sender, tokenId)\r\n    {\r\n        address owner = ownerOf(tokenId);\r\n\r\n        require(\r\n            tokenCreators[tokenId] == owner,\r\n            \"Media: owner is not creator of media\"\r\n        );\r\n\r\n        _burn(tokenId);\r\n    }\r\n\r\n    /**\r\n     * @notice Revoke the approvals for a token. The provided `approve` function is not sufficient\r\n     * for this protocol, as it does not allow an approved address to revoke it's own approval.\r\n     * In instances where a 3rd party is interacting on a user's behalf via `permit`, they should\r\n     * revoke their approval once their task is complete as a best practice.\r\n     */\r\n    function revokeApproval(uint256 tokenId) external override nonReentrant {\r\n        require(\r\n            msg.sender == getApproved(tokenId),\r\n            \"Media: caller not approved address\"\r\n        );\r\n        _approve(address(0), tokenId);\r\n    }\r\n\r\n    /**\r\n     * @notice see IMedia\r\n     * @dev only callable by approved or owner\r\n     */\r\n    function updateTokenURI(uint256 tokenId, string calldata tokenURI)\r\n        external\r\n        override\r\n        nonReentrant\r\n        onlyApprovedOrOwner(msg.sender, tokenId)\r\n        onlyTokenWithContentHash(tokenId)\r\n        onlyValidURI(tokenURI)\r\n    {\r\n        _setTokenURI(tokenId, tokenURI);\r\n        emit TokenURIUpdated(tokenId, msg.sender, tokenURI);\r\n    }\r\n\r\n    /**\r\n     * @notice see IMedia\r\n     * @dev only callable by approved or owner\r\n     */\r\n    function updateTokenMetadataURI(\r\n        uint256 tokenId,\r\n        string calldata metadataURI\r\n    )\r\n        external\r\n        override\r\n        nonReentrant\r\n        onlyApprovedOrOwner(msg.sender, tokenId)\r\n        onlyTokenWithMetadataHash(tokenId)\r\n        onlyValidURI(metadataURI)\r\n    {\r\n        _setTokenMetadataURI(tokenId, metadataURI);\r\n        emit TokenMetadataURIUpdated(tokenId, msg.sender, metadataURI);\r\n    }\r\n\r\n    /**\r\n     * @notice See IMedia\r\n     * @dev This method is loosely based on the permit for ERC-20 tokens in  EIP-2612, but modified\r\n     * for ERC-721.\r\n     */\r\n    function permit(\r\n        address spender,\r\n        uint256 tokenId,\r\n        EIP712Signature memory sig\r\n    ) public override nonReentrant onlyExistingToken(tokenId) {\r\n        require(\r\n            sig.deadline == 0 || sig.deadline >= block.timestamp,\r\n            \"Media: Permit expired\"\r\n        );\r\n        require(spender != address(0), \"Media: spender cannot be 0x0\");\r\n        bytes32 domainSeparator = _calculateDomainSeparator();\r\n\r\n        bytes32 digest =\r\n            keccak256(\r\n                abi.encodePacked(\r\n                    \"\\x19\\x01\",\r\n                    domainSeparator,\r\n                    keccak256(\r\n                        abi.encode(\r\n                            PERMIT_TYPEHASH,\r\n                            spender,\r\n                            tokenId,\r\n                            permitNonces[ownerOf(tokenId)][tokenId]++,\r\n                            sig.deadline\r\n                        )\r\n                    )\r\n                )\r\n            );\r\n\r\n        address recoveredAddress = ecrecover(digest, sig.v, sig.r, sig.s);\r\n\r\n        require(\r\n            recoveredAddress != address(0) &&\r\n                ownerOf(tokenId) == recoveredAddress,\r\n            \"Media: Signature invalid\"\r\n        );\r\n\r\n        _approve(spender, tokenId);\r\n    }\r\n\r\n    /* *****************\r\n     * Private Functions\r\n     * *****************\r\n     */\r\n\r\n    /**\r\n     * @notice Creates a new token for `creator`. Its token ID will be automatically\r\n     * assigned (and available on the emitted {IERC721-Transfer} event), and the token\r\n     * URI autogenerated based on the base URI passed at construction.\r\n     *\r\n     * See {ERC721-_safeMint}.\r\n     *\r\n     * On mint, also set the sha256 hashes of the content and its metadata for integrity\r\n     * checks, along with the initial URIs to point to the content and metadata. Attribute\r\n     * the token ID to the creator, mark the content hash as used, and set the bid shares for\r\n     * the media's market.\r\n     *\r\n     * Note that although the content hash must be unique for future mints to prevent duplicate media,\r\n     * metadata has no such requirement.\r\n     */\r\n    function _mintForCreator(\r\n        address creator,\r\n        MediaData memory data,\r\n        IMarket.BidShares memory bidShares\r\n    ) internal onlyValidURI(data.tokenURI) onlyValidURI(data.metadataURI) {\r\n        require(data.contentHash != 0, \"Media: content hash must be non-zero\");\r\n        require(\r\n            _contentHashes[data.contentHash] == false,\r\n            \"Media: a token has already been created with this content hash\"\r\n        );\r\n        require(\r\n            data.metadataHash != 0,\r\n            \"Media: metadata hash must be non-zero\"\r\n        );\r\n\r\n        uint256 tokenId = _tokenIdTracker.current();\r\n\r\n        _safeMint(creator, tokenId);\r\n        _tokenIdTracker.increment();\r\n        _setTokenContentHash(tokenId, data.contentHash);\r\n        _setTokenMetadataHash(tokenId, data.metadataHash);\r\n        _setTokenMetadataURI(tokenId, data.metadataURI);\r\n        _setTokenURI(tokenId, data.tokenURI);\r\n        _creatorTokens[creator].add(tokenId);\r\n        _contentHashes[data.contentHash] = true;\r\n\r\n        tokenCreators[tokenId] = creator;\r\n        previousTokenOwners[tokenId] = creator;\r\n        IMarket(marketContract).setBidShares(tokenId, bidShares);\r\n    }\r\n\r\n    function getTokenCount() external view override returns(uint256) {\r\n        return _tokenIdTracker.current();\r\n    }   \r\n\r\n    function _setTokenContentHash(uint256 tokenId, bytes32 contentHash)\r\n        internal\r\n        virtual\r\n        onlyExistingToken(tokenId)\r\n    {\r\n        tokenContentHashes[tokenId] = contentHash;\r\n    }\r\n\r\n    function _setTokenMetadataHash(uint256 tokenId, bytes32 metadataHash)\r\n        internal\r\n        virtual\r\n        onlyExistingToken(tokenId)\r\n    {\r\n        tokenMetadataHashes[tokenId] = metadataHash;\r\n    }\r\n\r\n    function _setTokenMetadataURI(uint256 tokenId, string memory metadataURI)\r\n        internal\r\n        virtual\r\n        onlyExistingToken(tokenId)\r\n    {\r\n        _tokenMetadataURIs[tokenId] = metadataURI;\r\n    }\r\n\r\n    /**\r\n     * @notice Destroys `tokenId`.\r\n     * @dev We modify the OZ _burn implementation to\r\n     * maintain metadata and to remove the\r\n     * previous token owner from the piece\r\n     */\r\n    function _burn(uint256 tokenId) internal override {\r\n        string memory tokenURI = _tokenURIs[tokenId];\r\n\r\n        super._burn(tokenId);\r\n\r\n        if (bytes(tokenURI).length != 0) {\r\n            _tokenURIs[tokenId] = tokenURI;\r\n        }\r\n\r\n        delete previousTokenOwners[tokenId];\r\n    }\r\n\r\n    /**\r\n     * @notice transfer a token and remove the ask for it.\r\n     */\r\n    function _transfer(\r\n        address from,\r\n        address to,\r\n        uint256 tokenId\r\n    ) internal override {\r\n        IMarket(marketContract).removeAsk(tokenId);\r\n\r\n        super._transfer(from, to, tokenId);\r\n    }\r\n\r\n    /**\r\n     * @dev Calculates EIP712 DOMAIN_SEPARATOR based on the current contract and chain ID.\r\n     */\r\n    function _calculateDomainSeparator() internal view returns (bytes32) {\r\n        uint256 chainID;\r\n        /* solium-disable-next-line */\r\n        assembly {\r\n            chainID := chainid()\r\n        }\r\n\r\n        return\r\n            keccak256(\r\n                abi.encode(\r\n                    keccak256(\r\n                        \"EIP712Domain(string name,string version,uint256 chainId,address verifyingContract)\"\r\n                    ),\r\n                    keccak256(bytes(\"XYZ\")),\r\n                    keccak256(bytes(\"1\")),\r\n                    chainID,\r\n                    address(this)\r\n                )\r\n            );\r\n    }\r\n}",
  "sourcePath": "E:\\202202\\lou\\contracts\\contracts\\Media.sol",
  "compiler": {
    "name": "solc",
    "version": "0.6.8+commit.0bbfe453.Emscripten.clang"
  },
  "schemaVersion": "3.4.4",
  "updatedAt": "2022-02-18T14:15:07.300Z",
  "devdoc": {
    "methods": {
      "approve(address,uint256)": {
        "details": "See {IERC721-approve}."
      },
      "balanceOf(address)": {
        "details": "See {IERC721-balanceOf}."
      },
      "baseURI()": {
        "details": "Returns the base URI set via {_setBaseURI}. This will be automatically added as a prefix in {tokenURI} to each token's URI, or to the token ID if no specific URI is set for that token ID."
      },
      "burn(uint256)": {
        "details": "Only callable if the media owner is also the creator."
      },
      "getApproved(uint256)": {
        "details": "See {IERC721-getApproved}."
      },
      "isApprovedForAll(address,address)": {
        "details": "See {IERC721-isApprovedForAll}."
      },
      "name()": {
        "details": "See {IERC721Metadata-name}."
      },
      "ownerOf(uint256)": {
        "details": "See {IERC721-ownerOf}."
      },
      "permit(address,uint256,(uint256,uint8,bytes32,bytes32))": {
        "details": "This method is loosely based on the permit for ERC-20 tokens in  EIP-2612, but modified for ERC-721."
      },
      "safeTransferFrom(address,address,uint256)": {
        "details": "See {IERC721-safeTransferFrom}."
      },
      "safeTransferFrom(address,address,uint256,bytes)": {
        "details": "See {IERC721-safeTransferFrom}."
      },
      "setApprovalForAll(address,bool)": {
        "details": "See {IERC721-setApprovalForAll}."
      },
      "supportsInterface(bytes4)": {
        "details": "See {IERC165-supportsInterface}.     * Time complexity O(1), guaranteed to always use less than 30 000 gas."
      },
      "symbol()": {
        "details": "See {IERC721Metadata-symbol}."
      },
      "tokenByIndex(uint256)": {
        "details": "See {IERC721Enumerable-tokenByIndex}."
      },
      "tokenMetadataURI(uint256)": {
        "returns": {
          "_0": "the metadata URI for the token"
        }
      },
      "tokenOfOwnerByIndex(address,uint256)": {
        "details": "See {IERC721Enumerable-tokenOfOwnerByIndex}."
      },
      "tokenURI(uint256)": {
        "details": "This function is an override of the base OZ implementation because we will return the tokenURI even if the media has been burned. In addition, this protocol does not support a base URI, so relevant conditionals are removed.",
        "returns": {
          "_0": "the URI for a token"
        }
      },
      "totalSupply()": {
        "details": "See {IERC721Enumerable-totalSupply}."
      },
      "transferFrom(address,address,uint256)": {
        "details": "See {IERC721-transferFrom}."
      },
      "updateTokenMetadataURI(uint256,string)": {
        "details": "only callable by approved or owner"
      },
      "updateTokenURI(uint256,string)": {
        "details": "only callable by approved or owner"
      }
    },
    "title": "A media value system, with perpetual equity to creators"
  },
  "userdoc": {
    "methods": {
      "acceptBid(uint256,(uint256,address,address,(uint256)))": {
        "notice": "see IMedia"
      },
      "auctionTransfer(uint256,address)": {
        "notice": "see IMedia"
      },
      "burn(uint256)": {
        "notice": "Burn a token."
      },
      "constructor": "On deployment, set the market contract address and register the ERC721 metadata interface",
      "mint((string,string,bytes32,bytes32))": {
        "notice": "see IMedia"
      },
      "mintWithSig(address,(string,string,bytes32,bytes32),((uint256),(uint256),(uint256)),(uint256,uint8,bytes32,bytes32))": {
        "notice": "see IMedia"
      },
      "permit(address,uint256,(uint256,uint8,bytes32,bytes32))": {
        "notice": "See IMedia"
      },
      "removeAsk(uint256)": {
        "notice": "see IMedia"
      },
      "removeBid(uint256)": {
        "notice": "see IMedia"
      },
      "revokeApproval(uint256)": {
        "notice": "Revoke the approvals for a token. The provided `approve` function is not sufficient for this protocol, as it does not allow an approved address to revoke it's own approval. In instances where a 3rd party is interacting on a user's behalf via `permit`, they should revoke their approval once their task is complete as a best practice."
      },
      "setAsk(uint256,uint256)": {
        "notice": "see IMedia"
      },
      "setBid(uint256,(uint256,address,address,(uint256)))": {
        "notice": "see IMedia"
      },
      "tokenMetadataURI(uint256)": {
        "notice": "Return the metadata URI for a piece of media given the token URI"
      },
      "tokenURI(uint256)": {
        "notice": "return the URI for a particular piece of media with the specified tokenId"
      },
      "updateTokenMetadataURI(uint256,string)": {
        "notice": "see IMedia"
      },
      "updateTokenURI(uint256,string)": {
        "notice": "see IMedia"
      }
    },
    "notice": "This contract provides an interface to mint media with a market owned by the creator."
  }
}